00010    0629202400395200052690006323000592800059280007114000711400000000000000000395201LSSTDSTD87NWORK           NNNAUTO DRIVER                        AUTO DRIVER         YYYYYYYYYYYYYYYY          
00011    0629202400405200054030006483000607800060780007294000729400000000000000000405201LSSTDSTD87NWORK           NNNAUTO DRIVER                        AUTO DRIVER         YYYYYYYYYYYYYYYY          
00012    0629202400425200056690006803000637800063780007654000765400000000000000000425201LSSTDSTD87NWORK           NNNAUTO DRIVER                        AUTO DRIVER         YYYYYYYYYYYYYYYY          
00013    0629202400425200056690006803000637800063780007654000765400000000000000000425201LSSTDSTD87NWORK           NNNAUTO DRIVER                        AUTO DRIVER         YYYYYYYYYYYYYYYY          
00014    0629202400548500073130008776000822800082280009873000987300000000000000000548501LSSTDSTD87NWORK           NNNAUTO DRIVER                        AUTO DRIVER         YYYYYYYYYYYYYYYY          
00015    0629202400548500073130008776000822800082280009873000987300000000000000000548501LSSTDSTD87NWORK           NNNAUTO DRIVER                        AUTO DRIVER         YYYYYYYYYYYYYYYY          
00020    0629202400395200052690006323000592800059280007114000711400000000000000000395201LSSTDSTD87NWORK           NNNBOARDMAN                           BOARDMAN            YYYYNNNNYYYYYYYY          
00021    0629202400405200054030006483000607800060780007294000729400000000000000000405201LSSTDSTD87NWORK           NNNBOARDMAN                           BOARDMAN            YYYYNNNNYYYYYYYY          
00022    0629202400425200056690006803000637800063780007654000765400000000000000000425201LSSTDSTD87NWORK           NNNBOARDMAN                           BOARDMAN            YYYYNNNNYYYYYYYY          
00023    0629202400425200056690006803000637800063780007654000765400000000000000000425201LSSTDSTD87NWORK           NNNBOARDMAN                           BOARDMAN            YYYYNNNNYYYYYYYY          
00024    0629202400548500073130008776000822800082280009873000987300000000000000000548501LSSTDSTD87NWORK           NNNBOARDMAN                           BOARDMAN            YYYYNNNNYYYYYYYY          
00025    0629202400548500073130008776000822800082280009873000987300000000000000000548501LSSTDSTD87NWORK           NNNBOARDMAN                           BOARDMAN            YYYYNNNNYYYYYYYY          
00030    0629202400419200055890006707000628800062880007546000754600000000000000000395201LSSTDSTD87NWORK           NNNBOATMAN                            BOATMAN             YYYYNNNNYYYYYYYY          
00031    0629202400429200057230006867000643800064380007726000772600000000000000000405201LSSTDSTD87NWORK           NNNBOATMAN                            BOATMAN             YYYYNNNNYYYYYYYY          
00032    0629202400449200059890007187000673800067380008086000808600000000000000000425201LSSTDSTD87NWORK           NNNBOATMAN                            BOATMAN             YYYYNNNNYYYYYYYY          
00033    0629202400449200059890007187000673800067380008086000808600000000000000000425201LSSTDSTD87NWORK           NNNBOATMAN                            BOATMAN             YYYYNNNNYYYYYYYY          
00034    0629202400572500076330009160000858800085880010305001030500000000000000000548501LSSTDSTD87NWORK           NNNBOATMAN                            BOATMAN             YYYYNNNNYYYYYYYY          
00035    0629202400572500076330009160000858800085880010305001030500000000000000000548501LSSTDSTD87NWORK           NNNBOATMAN                            BOATMAN             YYYYNNNNYYYYYYYY          
00040    0629202400395200052690006323000592800059280007114000711400000000000000000395201CTSTDSTD87NWORK           NNNCARPENTER - W/O TOOL               CARPENTER - W/O TOOLNNNNYYYYNNNNNNNN          
00041    0629202400405200054030006483000607800060780007294000729400000000000000000405201CTSTDSTD87NWORK           NNNCARPENTER - W/O TOOL               CARPENTER - W/O TOOLNNNNYYYYNNNNNNNN          
00042    0629202400425200056690006803000637800063780007654000765400000000000000000425201CTSTDSTD87NWORK           NNNCARPENTER - W/O TOOL               CARPENTER - W/O TOOLNNNNYYYYNNNNNNNN          
00043    0629202400425200056690006803000637800063780007654000765400000000000000000425201CTSTDSTD87NWORK           NNNCARPENTER - W/O TOOL               CARPENTER - W/O TOOLNNNNYYYYNNNNNNNN          
00044    0629202400548500073130008776000822800082280009873000987300000000000000000548501CTSTDSTD87NWORK           NNNCARPENTER - W/O TOOL               CARPENTER - W/O TOOLNNNNYYYYNNNNNNNN          
00045    0629202400548500073130008776000822800082280009873000987300000000000000000548501CTSTDSTD87NWORK           NNNCARPENTER - W/O TOOL               CARPENTER - W/O TOOLNNNNYYYYNNNNNNNN          
00050    0629202400395200052690006323000592800059280007114000711400000000000000000395201DKSTDSTD87NWORK           NCNDOCKMAN                            DOCKMAN             YYYYYYYYYYYYYYYY          
00051    0629202400405200054030006483000607800060780007294000729400000000000000000405201DKSTDSTD87NWORK           NCNDOCKMAN                            DOCKMAN             YYYYYYYYYYYYYYYY          
00052    0629202400425200056690006803000637800063780007654000765400000000000000000425201DKSTDSTD87NWORK           NCNDOCKMAN                            DOCKMAN             YYYYYYYYYYYYYYYY          
00053    0629202400425200056690006803000637800063780007654000765400000000000000000425201DKSTDSTD87NWORK           NCNDOCKMAN                            DOCKMAN             YYYYYYYYYYYYYYYY          
00054    0629202400548500073130008776000822800082280009873000987300000000000000000548501DKSTDSTD87NWORK           NCNDOCKMAN                            DOCKMAN             YYYYYYYYYYYYYYYY          
00055    0629202400548500073130008776000822800082280009873000987300000000000000000548501DKSTDSTD87NWORK           NCNDOCKMAN                            DOCKMAN             YYYYYYYYYYYYYYYY          
00060    0629202400395200052690006323000592800059280007114000711400000000000000000395201DKSTDSTD87NWORK           NTNFRONTMAN -SLINGMAN-                FRONTMAN -SLINGMAN- YYYYYYYYYYYYYYYY          
00061    0629202400405200054030006483000607800060780007294000729400000000000000000405201DKSTDSTD87NWORK           NTNFRONTMAN -SLINGMAN-                FRONTMAN -SLINGMAN- YYYYYYYYYYYYYYYY          
00062    0629202400425200056690006803000637800063780007654000765400000000000000000425201DKSTDSTD87NWORK           NTNFRONTMAN -SLINGMAN-                FRONTMAN -SLINGMAN- YYYYYYYYYYYYYYYY          
00063    0629202400425200056690006803000637800063780007654000765400000000000000000425201DKSTDSTD87NWORK           NTNFRONTMAN -SLINGMAN-                FRONTMAN -SLINGMAN- YYYYYYYYYYYYYYYY          
00064    0629202400548500073130008776000822800082280009873000987300000000000000000548501DKSTDSTD87NWORK           NTNFRONTMAN -SLINGMAN-                FRONTMAN -SLINGMAN- YYYYYYYYYYYYYYYY          
00065    0629202400548500073130008776000822800082280009873000987300000000000000000548501DKSTDSTD87NWORK           NTNFRONTMAN -SLINGMAN-                FRONTMAN -SLINGMAN- YYYYYYYYYYYYYYYY          
00070    0629202400395200052690006323000592800059280007114000711400000000000000000395201LSSTDSTD87NWORK           NCNHOLDMAN                            HOLDMAN             YYYYYYYYYYYYYYYY          
00071    0629202400405200054030006483000607800060780007294000729400000000000000000405201LSSTDSTD87NWORK           NCNHOLDMAN                            HOLDMAN             YYYYYYYYYYYYYYYY          
00072    0629202400425200056690006803000637800063780007654000765400000000000000000425201LSSTDSTD87NWORK           NCNHOLDMAN                            HOLDMAN             YYYYYYYYYYYYYYYY          
00073    0629202400425200056690006803000637800063780007654000765400000000000000000425201LSSTDSTD87NWORK           NCNHOLDMAN                            HOLDMAN             YYYYYYYYYYYYYYYY          
00074    0629202400548500073130008776000822800082280009873000987300000000000000000548501LSSTDSTD87NWORK           NCNHOLDMAN                            HOLDMAN             YYYYYYYYYYYYYYYY          
00075    0629202400548500073130008776000822800082280009873000987300000000000000000548501LSSTDSTD87NWORK           NCNHOLDMAN                            HOLDMAN             YYYYYYYYYYYYYYYY          
00080    0629202400395200052690006323000592800059280007114000711400000000000000000395201DKSTDSTD87NWORK           NNNJITNEY DRIVER                      JITNEY DRIVER       YYYYYYYYYYYYYYYY          
00081    0629202400405200054030006483000607800060780007294000729400000000000000000405201DKSTDSTD87NWORK           NNNJITNEY DRIVER                      JITNEY DRIVER       YYYYYYYYYYYYYYYY          
00082    0629202400425200056690006803000637800063780007654000765400000000000000000425201DKSTDSTD87NWORK           NNNJITNEY DRIVER                      JITNEY DRIVER       YYYYYYYYYYYYYYYY          
00083    0629202400425200056690006803000637800063780007654000765400000000000000000425201DKSTDSTD87NWORK           NNNJITNEY DRIVER                      JITNEY DRIVER       YYYYYYYYYYYYYYYY          
00084    0629202400548500073130008776000822800082280009873000987300000000000000000548501DKSTDSTD87NWORK           NNNJITNEY DRIVER                      JITNEY DRIVER       YYYYYYYYYYYYYYYY          
00085    0629202400548500073130008776000822800082280009873000987300000000000000000548501DKSTDSTD87NWORK           NNNJITNEY DRIVER                      JITNEY DRIVER       YYYYYYYYYYYYYYYY          
00090    0629202400395200052690006323000592800059280007114000711400000000000000000395201LSSTDSTD87NWORK           NCNLASHER                             LASHER              YYYYYYYYYYYYYYYY          
00091    0629202400405200054030006483000607800060780007294000729400000000000000000405201LSSTDSTD87NWORK           NCNLASHER                             LASHER              YYYYYYYYYYYYYYYY          
00092    0629202400425200056690006803000637800063780007654000765400000000000000000425201LSSTDSTD87NWORK           NCNLASHER                             LASHER              YYYYYYYYYYYYYYYY          
00093    0629202400425200056690006803000637800063780007654000765400000000000000000425201LSSTDSTD87NWORK           NCNLASHER                             LASHER              YYYYYYYYYYYYYYYY          
00094    0629202400548500073130008776000822800082280009873000987300000000000000000548501LSSTDSTD87NWORK           NCNLASHER                             LASHER              YYYYYYYYYYYYYYYY          
00095    0629202400548500073130008776000822800082280009873000987300000000000000000548501LSSTDSTD87NWORK           NCNLASHER                             LASHER              YYYYYYYYYYYYYYYY          
00110    0629202400395200052690006323000592800059280007114000000000000000000000000274301LSSTDSTD87YWORK           NNYPMA TRAINING L/S                   PMA TRAINING L/S    YYYYYYYYYYYYYYYYCLERKNO   
00111    0629202400405200054030006483000607800060780007294000000000000000000000000274301LSSTDSTD87YWORK           NNYPMA TRAINING L/S                   PMA TRAINING L/S    YYYYYYYYYYYYYYYYCLERKNO   
00112    0629202400425200056690006803000637800063780007654000000000000000000000000274301LSSTDSTD87YWORK           NNYPMA TRAINING L/S                   PMA TRAINING L/S    YYYYYYYYYYYYYYYYCLERKNO   
00113    0629202400425200056690006803000637800063780007654000000000000000000000000274301LSSTDSTD87YWORK           NNYPMA TRAINING L/S                   PMA TRAINING L/S    YYYYYYYYYYYYYYYYCLERKNO   
00114    0629202400548500073130008776000822800082280009873000000000000000000000000274301LSSTDSTD87YWORK           NNYPMA TRAINING L/S                   PMA TRAINING L/S    YYYYYYYYYYYYYYYYCLERKNO   
00115    0629202400548500073130008776000822800082280009873000000000000000000000000274301LSSTDSTD87YWORK           NNYPMA TRAINING L/S                   PMA TRAINING L/S    YYYYYYYYYYYYYYYYCLERKNO   
00120    0629202400395200052690006323000592800059280007114000711400000000000000000395201LSSTDSTD87NWORK           NCNCAR MAN                            CAR MAN             YYYYYYYYYYYYYYYY          
00121    0629202400405200054030006483000607800060780007294000729400000000000000000405201LSSTDSTD87NWORK           NCNCAR MAN                            CAR MAN             YYYYYYYYYYYYYYYY          
00122    0629202400425200056690006803000637800063780007654000765400000000000000000425201LSSTDSTD87NWORK           NCNCAR MAN                            CAR MAN             YYYYYYYYYYYYYYYY          
00123    0629202400425200056690006803000637800063780007654000765400000000000000000425201LSSTDSTD87NWORK           NCNCAR MAN                            CAR MAN             YYYYYYYYYYYYYYYY          
00124    0629202400548500073130008776000822800082280009873000987300000000000000000548501LSSTDSTD87NWORK           NCNCAR MAN                            CAR MAN             YYYYYYYYYYYYYYYY          
00125    0629202400548500073130008776000822800082280009873000987300000000000000000548501LSSTDSTD87NWORK           NCNCAR MAN                            CAR MAN             YYYYYYYYYYYYYYYY          
00210    0629202400419200055890006707000628800062880007546000754600000000000000000395201LSSTDSTD87NWORK           NNNBOOM MAN/RAFT MAN                  BOOM MAN/RAFT MAN   NNNNNNNNYYYYYYYY          
00211    0629202400429200057230006867000643800064380007726000772600000000000000000405201LSSTDSTD87NWORK           NNNBOOM MAN/RAFT MAN                  BOOM MAN/RAFT MAN   NNNNNNNNYYYYYYYY          
00212    0629202400449200059890007187000673800067380008086000808600000000000000000425201LSSTDSTD87NWORK           NNNBOOM MAN/RAFT MAN                  BOOM MAN/RAFT MAN   NNNNNNNNYYYYYYYY          
00213    0629202400449200059890007187000673800067380008086000808600000000000000000425201LSSTDSTD87NWORK           NNNBOOM MAN/RAFT MAN                  BOOM MAN/RAFT MAN   NNNNNNNNYYYYYYYY          
00214    0629202400572500076330009160000858800085880010305001030500000000000000000548501LSSTDSTD87NWORK           NNNBOOM MAN/RAFT MAN                  BOOM MAN/RAFT MAN   NNNNNNNNYYYYYYYY          
00215    0629202400572500076330009160000858800085880010305001030500000000000000000548501LSSTDSTD87NWORK           NNNBOOM MAN/RAFT MAN                  BOOM MAN/RAFT MAN   NNNNNNNNYYYYYYYY          
00230    0629202400419200055890006707000628800062880007546000754600000000000000000395201LSSTDSTD87NWORK           NNNBUTTON PUSHER                      BUTTON PUSHER       YYYYYYYYYYYYYYYY          
00231    0629202400429200057230006867000643800064380007726000772600000000000000000405201LSSTDSTD87NWORK           NNNBUTTON PUSHER                      BUTTON PUSHER       YYYYYYYYYYYYYYYY          
00232    0629202400449200059890007187000673800067380008086000808600000000000000000425201LSSTDSTD87NWORK           NNNBUTTON PUSHER                      BUTTON PUSHER       YYYYYYYYYYYYYYYY          
00233    0629202400449200059890007187000673800067380008086000808600000000000000000425201LSSTDSTD87NWORK           NNNBUTTON PUSHER                      BUTTON PUSHER       YYYYYYYYYYYYYYYY          
00234    0629202400572500076330009160000858800085880010305001030500000000000000000548501LSSTDSTD87NWORK           NNNBUTTON PUSHER                      BUTTON PUSHER       YYYYYYYYYYYYYYYY          
00235    0629202400572500076330009160000858800085880010305001030500000000000000000548501LSSTDSTD87NWORK           NNNBUTTON PUSHER                      BUTTON PUSHER       YYYYYYYYYYYYYYYY          
00240    0629202400419200055890006707000628800062880007546000754600000000000000000395201CTSTDSTD87NWORK           NTNCARPENTER/W TOOLS                  CARPENTER/W TOOLS   NNNNYYYYNNNNNNNN          
00241    0629202400429200057230006867000643800064380007726000772600000000000000000405201CTSTDSTD87NWORK           NTNCARPENTER/W TOOLS                  CARPENTER/W TOOLS   NNNNYYYYNNNNNNNN          
00242    0629202400449200059890007187000673800067380008086000808600000000000000000425201CTSTDSTD87NWORK           NTNCARPENTER/W TOOLS                  CARPENTER/W TOOLS   NNNNYYYYNNNNNNNN          
00243    0629202400449200059890007187000673800067380008086000808600000000000000000425201CTSTDSTD87NWORK           NTNCARPENTER/W TOOLS                  CARPENTER/W TOOLS   NNNNYYYYNNNNNNNN          
00244    0629202400572500076330009160000858800085880010305001030500000000000000000548501CTSTDSTD87NWORK           NTNCARPENTER/W TOOLS                  CARPENTER/W TOOLS   NNNNYYYYNNNNNNNN          
00245    0629202400572500076330009160000858800085880010305001030500000000000000000548501CTSTDSTD87NWORK           NTNCARPENTER/W TOOLS                  CARPENTER/W TOOLS   NNNNYYYYNNNNNNNN          
00250    0629202400419200055890006707000628800062880007546000754600000000000000000395201LBSTDSTD87NWORK           NCNCOMBO LIFT/JITNEY                  COMBO LIFT/JITNEY   YYYYYYYYYYYYYYYY          
00251    0629202400429200057230006867000643800064380007726000772600000000000000000405201LBSTDSTD87NWORK           NCNCOMBO LIFT/JITNEY                  COMBO LIFT/JITNEY   YYYYYYYYYYYYYYYY          
00252    0629202400449200059890007187000673800067380008086000808600000000000000000425201LBSTDSTD87NWORK           NCNCOMBO LIFT/JITNEY                  COMBO LIFT/JITNEY   YYYYYYYYYYYYYYYY          
00253    0629202400449200059890007187000673800067380008086000808600000000000000000425201LBSTDSTD87NWORK           NCNCOMBO LIFT/JITNEY                  COMBO LIFT/JITNEY   YYYYYYYYYYYYYYYY          
00254    0629202400572500076330009160000858800085880010305001030500000000000000000548501LBSTDSTD87NWORK           NCNCOMBO LIFT/JITNEY                  COMBO LIFT/JITNEY   YYYYYYYYYYYYYYYY          
00255    0629202400572500076330009160000858800085880010305001030500000000000000000548501LBSTDSTD87NWORK           NCNCOMBO LIFT/JITNEY                  COMBO LIFT/JITNEY   YYYYYYYYYYYYYYYY          
00260    0629202400419200055890006707000628800062880007546000754600000000000000000395201CRSTDSTD87NWORK           NNNCRANE CHASER                       CRANE CHASER        NNNNNNNNYYYYYYYY          
00261    0629202400429200057230006867000643800064380007726000772600000000000000000405201CRSTDSTD87NWORK           NNNCRANE CHASER                       CRANE CHASER        NNNNNNNNYYYYYYYY          
00262    0629202400449200059890007187000673800067380008086000808600000000000000000425201CRSTDSTD87NWORK           NNNCRANE CHASER                       CRANE CHASER        NNNNNNNNYYYYYYYY          
00263    0629202400449200059890007187000673800067380008086000808600000000000000000425201CRSTDSTD87NWORK           NNNCRANE CHASER                       CRANE CHASER        NNNNNNNNYYYYYYYY          
00264    0629202400572500076330009160000858800085880010305001030500000000000000000548501CRSTDSTD87NWORK           NNNCRANE CHASER                       CRANE CHASER        NNNNNNNNYYYYYYYY          
00265    0629202400572500076330009160000858800085880010305001030500000000000000000548501CRSTDSTD87NWORK           NNNCRANE CHASER                       CRANE CHASER        NNNNNNNNYYYYYYYY          
00270    0629202400419200055890006707000628800062880007546000754600000000000000000395201SHSTDSTD87NWORK           NCNDOCK GANG LEADER                   DOCK GANG LEADER    NNNNYYYYNNNNYYYY          
00271    0629202400429200057230006867000643800064380007726000772600000000000000000405201SHSTDSTD87NWORK           NCNDOCK GANG LEADER                   DOCK GANG LEADER    NNNNYYYYNNNNYYYY          
00272    0629202400449200059890007187000673800067380008086000808600000000000000000425201SHSTDSTD87NWORK           NCNDOCK GANG LEADER                   DOCK GANG LEADER    NNNNYYYYNNNNYYYY          
00273    0629202400449200059890007187000673800067380008086000808600000000000000000425201SHSTDSTD87NWORK           NCNDOCK GANG LEADER                   DOCK GANG LEADER    NNNNYYYYNNNNYYYY          
00274    0629202400572500076330009160000858800085880010305001030500000000000000000548501SHSTDSTD87NWORK           NCNDOCK GANG LEADER                   DOCK GANG LEADER    NNNNYYYYNNNNYYYY          
00275    0629202400572500076330009160000858800085880010305001030500000000000000000548501SHSTDSTD87NWORK           NCNDOCK GANG LEADER                   DOCK GANG LEADER    NNNNYYYYNNNNYYYY          
00280    0629202400419200055890006707000628800062880007546000754600000000000000000395201HTSTDSTD87NWORK           NTNHATCH TENDER                       HATCH TENDER        YYYYYYYYYYYYYYYY          
00281    0629202400429200057230006867000643800064380007726000772600000000000000000405201HTSTDSTD87NWORK           NTNHATCH TENDER                       HATCH TENDER        YYYYYYYYYYYYYYYY          
00282    0629202400449200059890007187000673800067380008086000808600000000000000000425201HTSTDSTD87NWORK           NTNHATCH TENDER                       HATCH TENDER        YYYYYYYYYYYYYYYY          
00283    0629202400449200059890007187000673800067380008086000808600000000000000000425201HTSTDSTD87NWORK           NTNHATCH TENDER                       HATCH TENDER        YYYYYYYYYYYYYYYY          
00284    0629202400572500076330009160000858800085880010305001030500000000000000000548501HTSTDSTD87NWORK           NTNHATCH TENDER                       HATCH TENDER        YYYYYYYYYYYYYYYY          
00285    0629202400572500076330009160000858800085880010305001030500000000000000000548501HTSTDSTD87NWORK           NTNHATCH TENDER                       HATCH TENDER        YYYYYYYYYYYYYYYY          
00290    0629202400419200055890006707000628800062880007546000754600000000000000000395201LBSTDSTD87NWORK           NCNLIFT TRUCK OPERATOR                LIFT TRUCK OPERATOR YYYYYYYYYYYYYYYY          
00291    0629202400429200057230006867000643800064380007726000772600000000000000000405201LBSTDSTD87NWORK           NCNLIFT TRUCK OPERATOR                LIFT TRUCK OPERATOR YYYYYYYYYYYYYYYY          
00292    0629202400449200059890007187000673800067380008086000808600000000000000000425201LBSTDSTD87NWORK           NCNLIFT TRUCK OPERATOR                LIFT TRUCK OPERATOR YYYYYYYYYYYYYYYY          
00293    0629202400449200059890007187000673800067380008086000808600000000000000000425201LBSTDSTD87NWORK           NCNLIFT TRUCK OPERATOR                LIFT TRUCK OPERATOR YYYYYYYYYYYYYYYY          
00294    0629202400572500076330009160000858800085880010305001030500000000000000000548501LBSTDSTD87NWORK           NCNLIFT TRUCK OPERATOR                LIFT TRUCK OPERATOR YYYYYYYYYYYYYYYY          
00295    0629202400572500076330009160000858800085880010305001030500000000000000000548501LBSTDSTD87NWORK           NCNLIFT TRUCK OPERATOR                LIFT TRUCK OPERATOR YYYYYYYYYYYYYYYY          
00300    0629202400419200055890006707000628800062880007546000754600000000000000000395201LBSTDSTD87NWORK           NNNPAYLOADER OPERATOR                 PAYLOADER OPERATOR  YYYYYYYYYYYYYYYY          
00301    0629202400429200057230006867000643800064380007726000772600000000000000000405201LBSTDSTD87NWORK           NNNPAYLOADER OPERATOR                 PAYLOADER OPERATOR  YYYYYYYYYYYYYYYY          
00302    0629202400449200059890007187000673800067380008086000808600000000000000000425201LBSTDSTD87NWORK           NNNPAYLOADER OPERATOR                 PAYLOADER OPERATOR  YYYYYYYYYYYYYYYY          
00303    0629202400449200059890007187000673800067380008086000808600000000000000000425201LBSTDSTD87NWORK           NNNPAYLOADER OPERATOR                 PAYLOADER OPERATOR  YYYYYYYYYYYYYYYY          
00304    0629202400572500076330009160000858800085880010305001030500000000000000000548501LBSTDSTD87NWORK           NNNPAYLOADER OPERATOR                 PAYLOADER OPERATOR  YYYYYYYYYYYYYYYY          
00305    0629202400572500076330009160000858800085880010305001030500000000000000000548501LBSTDSTD87NWORK           NNNPAYLOADER OPERATOR                 PAYLOADER OPERATOR  YYYYYYYYYYYYYYYY          
00310    0629202400419200055890006707000628800062880007546000754600000000000000000395201CYSTDSTD87NWORK           NNNRAIL CAR PUSHER                    RAIL CAR PUSHER     YYYYYYYYNNNNYYYY          
00311    0629202400429200057230006867000643800064380007726000772600000000000000000405201CYSTDSTD87NWORK           NNNRAIL CAR PUSHER                    RAIL CAR PUSHER     YYYYYYYYNNNNYYYY          
00312    0629202400449200059890007187000673800067380008086000808600000000000000000425201CYSTDSTD87NWORK           NNNRAIL CAR PUSHER                    RAIL CAR PUSHER     YYYYYYYYNNNNYYYY          
00313    0629202400449200059890007187000673800067380008086000808600000000000000000425201CYSTDSTD87NWORK           NNNRAIL CAR PUSHER                    RAIL CAR PUSHER     YYYYYYYYNNNNYYYY          
00314    0629202400572500076330009160000858800085880010305001030500000000000000000548501CYSTDSTD87NWORK           NNNRAIL CAR PUSHER                    RAIL CAR PUSHER     YYYYYYYYNNNNYYYY          
00315    0629202400572500076330009160000858800085880010305001030500000000000000000548501CYSTDSTD87NWORK           NNNRAIL CAR PUSHER                    RAIL CAR PUSHER     YYYYYYYYNNNNYYYY          
00320    0629202400419200055890006707000628800062880007546000754600000000000000000395201CYSTDSTD87NWORK           NNNSIDE RUNNER                        SIDE RUNNER         NNNNNNNNNNNNYYYY          
00321    0629202400429200057230006867000643800064380007726000772600000000000000000405201CYSTDSTD87NWORK           NNNSIDE RUNNER                        SIDE RUNNER         NNNNNNNNNNNNYYYY          
00322    0629202400449200059890007187000673800067380008086000808600000000000000000425201CYSTDSTD87NWORK           NNNSIDE RUNNER                        SIDE RUNNER         NNNNNNNNNNNNYYYY          
00323    0629202400449200059890007187000673800067380008086000808600000000000000000425201CYSTDSTD87NWORK           NNNSIDE RUNNER                        SIDE RUNNER         NNNNNNNNNNNNYYYY          
00324    0629202400572500076330009160000858800085880010305001030500000000000000000548501CYSTDSTD87NWORK           NNNSIDE RUNNER                        SIDE RUNNER         NNNNNNNNNNNNYYYY          
00325    0629202400572500076330009160000858800085880010305001030500000000000000000548501CYSTDSTD87NWORK           NNNSIDE RUNNER                        SIDE RUNNER         NNNNNNNNNNNNYYYY          
00330    0629202400419200055890006707000628800062880007546000754600000000000000000395201SHSTDSTD87NWORK           NTNSKILLED HOLDMAN                    SKILLED HOLDMAN     YYYYYYYYYYYYYYYY          
00331    0629202400429200057230006867000643800064380007726000772600000000000000000405201SHSTDSTD87NWORK           NTNSKILLED HOLDMAN                    SKILLED HOLDMAN     YYYYYYYYYYYYYYYY          
00332    0629202400449200059890007187000673800067380008086000808600000000000000000425201SHSTDSTD87NWORK           NTNSKILLED HOLDMAN                    SKILLED HOLDMAN     YYYYYYYYYYYYYYYY          
00333    0629202400449200059890007187000673800067380008086000808600000000000000000425201SHSTDSTD87NWORK           NTNSKILLED HOLDMAN                    SKILLED HOLDMAN     YYYYYYYYYYYYYYYY          
00334    0629202400572500076330009160000858800085880010305001030500000000000000000548501SHSTDSTD87NWORK           NTNSKILLED HOLDMAN                    SKILLED HOLDMAN     YYYYYYYYYYYYYYYY          
00335    0629202400572500076330009160000858800085880010305001030500000000000000000548501SHSTDSTD87NWORK           NTNSKILLED HOLDMAN                    SKILLED HOLDMAN     YYYYYYYYYYYYYYYY          
00360    0629202400419200055890006707000628800062880007546000754600000000000000000395201TRSTDSTD87NWORK           NCNTRACTOR -SEMI-DOCK-                TRACTOR -SEMI-DOCK- YYYYYYYYYYYYYYYY          
00361    0629202400429200057230006867000643800064380007726000772600000000000000000405201TRSTDSTD87NWORK           NCNTRACTOR -SEMI-DOCK-                TRACTOR -SEMI-DOCK- YYYYYYYYYYYYYYYY          
00362    0629202400449200059890007187000673800067380008086000808600000000000000000425201TRSTDSTD87NWORK           NCNTRACTOR -SEMI-DOCK-                TRACTOR -SEMI-DOCK- YYYYYYYYYYYYYYYY          
00363    0629202400449200059890007187000673800067380008086000808600000000000000000425201TRSTDSTD87NWORK           NCNTRACTOR -SEMI-DOCK-                TRACTOR -SEMI-DOCK- YYYYYYYYYYYYYYYY          
00364    0629202400572500076330009160000858800085880010305001030500000000000000000548501TRSTDSTD87NWORK           NCNTRACTOR -SEMI-DOCK-                TRACTOR -SEMI-DOCK- YYYYYYYYYYYYYYYY          
00365    0629202400572500076330009160000858800085880010305001030500000000000000000548501TRSTDSTD87NWORK           NCNTRACTOR -SEMI-DOCK-                TRACTOR -SEMI-DOCK- YYYYYYYYYYYYYYYY          
00370    0629202400419200055890006707000628800062880007546000754600000000000000000395201LBSTDSTD87NWORK           NCNUTILITY LIFT DRIVER                UTILITY LIFT DRIVER YYYYYYYYYYYYYYYY          
00371    0629202400429200057230006867000643800064380007726000772600000000000000000405201LBSTDSTD87NWORK           NCNUTILITY LIFT DRIVER                UTILITY LIFT DRIVER YYYYYYYYYYYYYYYY          
00372    0629202400449200059890007187000673800067380008086000808600000000000000000425201LBSTDSTD87NWORK           NCNUTILITY LIFT DRIVER                UTILITY LIFT DRIVER YYYYYYYYYYYYYYYY          
00373    0629202400449200059890007187000673800067380008086000808600000000000000000425201LBSTDSTD87NWORK           NCNUTILITY LIFT DRIVER                UTILITY LIFT DRIVER YYYYYYYYYYYYYYYY          
00374    0629202400572500076330009160000858800085880010305001030500000000000000000548501LBSTDSTD87NWORK           NCNUTILITY LIFT DRIVER                UTILITY LIFT DRIVER YYYYYYYYYYYYYYYY          
00375    0629202400572500076330009160000858800085880010305001030500000000000000000548501LBSTDSTD87NWORK           NCNUTILITY LIFT DRIVER                UTILITY LIFT DRIVER YYYYYYYYYYYYYYYY          
00380    0629202400419200055890006707000628800062880007546000754600000000000000000395201WCSTDSTD87NWORK           NTNWINCH DRIVER                       WINCH DRIVER        YYYYYYYYYYYYYYYY          
00381    0629202400429200057230006867000643800064380007726000772600000000000000000405201WCSTDSTD87NWORK           NTNWINCH DRIVER                       WINCH DRIVER        YYYYYYYYYYYYYYYY          
00382    0629202400449200059890007187000673800067380008086000808600000000000000000425201WCSTDSTD87NWORK           NTNWINCH DRIVER                       WINCH DRIVER        YYYYYYYYYYYYYYYY          
00383    0629202400449200059890007187000673800067380008086000808600000000000000000425201WCSTDSTD87NWORK           NTNWINCH DRIVER                       WINCH DRIVER        YYYYYYYYYYYYYYYY          
00384    0629202400572500076330009160000858800085880010305001030500000000000000000548501WCSTDSTD87NWORK           NTNWINCH DRIVER                       WINCH DRIVER        YYYYYYYYYYYYYYYY          
00385    0629202400572500076330009160000858800085880010305001030500000000000000000548501WCSTDSTD87NWORK           NTNWINCH DRIVER                       WINCH DRIVER        YYYYYYYYYYYYYYYY          
00430    0629202400419200055890006707000628800062880007546000754600000000000000000395201UMSTDSTD87NGUARANTEE      NNYMONTHLY UTR GUARANTEE -TRACTOR     MONTHLY UTR GUARANTENNNNYYYYNNNNNNNN          
00431    0629202400429200057230006867000643800064380007726000772600000000000000000405201UMSTDSTD87NGUARANTEE      NNYMONTHLY UTR GUARANTEE -TRACTOR     MONTHLY UTR GUARANTENNNNYYYYNNNNNNNN          
00432    0629202400449200059890007187000673800067380008086000808600000000000000000425201UMSTDSTD87NGUARANTEE      NNYMONTHLY UTR GUARANTEE -TRACTOR     MONTHLY UTR GUARANTENNNNYYYYNNNNNNNN          
00433    0629202400449200059890007187000673800067380008086000808600000000000000000425201UMSTDSTD87NGUARANTEE      NNYMONTHLY UTR GUARANTEE -TRACTOR     MONTHLY UTR GUARANTENNNNYYYYNNNNNNNN          
00434    0629202400572500076330009160000858800085880010305001030500000000000000000548501UMSTDSTD87NGUARANTEE      NNYMONTHLY UTR GUARANTEE -TRACTOR     MONTHLY UTR GUARANTENNNNYYYYNNNNNNNN          
00435    0629202400572500076330009160000858800085880010305001030500000000000000000548501UMSTDSTD87NGUARANTEE      NNYMONTHLY UTR GUARANTEE -TRACTOR     MONTHLY UTR GUARANTENNNNYYYYNNNNNNNN          
00440    0629202400419200055890006707000628800062880007546000754600000000000000000395201STSTDSTD87NWORK           NNNMECHANICAL HOPPER OPENER           MECHANICAL HOPPER   NNNNNNNNYYYYNNNN          
00441    0629202400429200057230006867000643800064380007726000772600000000000000000405201STSTDSTD87NWORK           NNNMECHANICAL HOPPER OPENER           MECHANICAL HOPPER   NNNNNNNNYYYYNNNN          
00442    0629202400449200059890007187000673800067380008086000808600000000000000000425201STSTDSTD87NWORK           NNNMECHANICAL HOPPER OPENER           MECHANICAL HOPPER   NNNNNNNNYYYYNNNN          
00443    0629202400449200059890007187000673800067380008086000808600000000000000000425201STSTDSTD87NWORK           NNNMECHANICAL HOPPER OPENER           MECHANICAL HOPPER   NNNNNNNNYYYYNNNN          
00444    0629202400572500076330009160000858800085880010305001030500000000000000000548501STSTDSTD87NWORK           NNNMECHANICAL HOPPER OPENER           MECHANICAL HOPPER   NNNNNNNNYYYYNNNN          
00445    0629202400572500076330009160000858800085880010305001030500000000000000000548501STSTDSTD87NWORK           NNNMECHANICAL HOPPER OPENER           MECHANICAL HOPPER   NNNNNNNNYYYYNNNN          
00450    0629202400419200055890006707000628800062880007546000754600000000000000000395201UMSTDSTD87NWORK           NCNMONTHLY UTR WORK - TRACTOR         MONTHLY UTR WORK    NNNNYYYYNNNNNNNN          
00451    0629202400429200057230006867000643800064380007726000772600000000000000000405201UMSTDSTD87NWORK           NCNMONTHLY UTR WORK - TRACTOR         MONTHLY UTR WORK    NNNNYYYYNNNNNNNN          
00452    0629202400449200059890007187000673800067380008086000808600000000000000000425201UMSTDSTD87NWORK           NCNMONTHLY UTR WORK - TRACTOR         MONTHLY UTR WORK    NNNNYYYYNNNNNNNN          
00453    0629202400449200059890007187000673800067380008086000808600000000000000000425201UMSTDSTD87NWORK           NCNMONTHLY UTR WORK - TRACTOR         MONTHLY UTR WORK    NNNNYYYYNNNNNNNN          
00454    0629202400572500076330009160000858800085880010305001030500000000000000000548501UMSTDSTD87NWORK           NCNMONTHLY UTR WORK - TRACTOR         MONTHLY UTR WORK    NNNNYYYYNNNNNNNN          
00455    0629202400572500076330009160000858800085880010305001030500000000000000000548501UMSTDSTD87NWORK           NCNMONTHLY UTR WORK - TRACTOR         MONTHLY UTR WORK    NNNNYYYYNNNNNNNN          
00460    0629202400419200055890006707000628800062880007546000754600000000000000000395201STSTDSTD87NWORK           NNNCAR POUNDER                        CAR POUNDER         NNNNNNNNYYYYNNNN          
00461    0629202400429200057230006867000643800064380007726000772600000000000000000405201STSTDSTD87NWORK           NNNCAR POUNDER                        CAR POUNDER         NNNNNNNNYYYYNNNN          
00462    0629202400449200059890007187000673800067380008086000808600000000000000000425201STSTDSTD87NWORK           NNNCAR POUNDER                        CAR POUNDER         NNNNNNNNYYYYNNNN          
00463    0629202400449200059890007187000673800067380008086000808600000000000000000425201STSTDSTD87NWORK           NNNCAR POUNDER                        CAR POUNDER         NNNNNNNNYYYYNNNN          
00464    0629202400572500076330009160000858800085880010305001030500000000000000000548501STSTDSTD87NWORK           NNNCAR POUNDER                        CAR POUNDER         NNNNNNNNYYYYNNNN          
00465    0629202400572500076330009160000858800085880010305001030500000000000000000548501STSTDSTD87NWORK           NNNCAR POUNDER                        CAR POUNDER         NNNNNNNNYYYYNNNN          
00470    0629202400419200055890006707000628800062880007546000754600000000000000000395201STSTDSTD87NWORK           NNNUTR RO/RO SHIP                     UTR RO/RO SHIP      NNNNNNNNNNNNYYYY          
00471    0629202400429200057230006867000643800064380007726000772600000000000000000405201STSTDSTD87NWORK           NNNUTR RO/RO SHIP                     UTR RO/RO SHIP      NNNNNNNNNNNNYYYY          
00472    0629202400449200059890007187000673800067380008086000808600000000000000000425201STSTDSTD87NWORK           NNNUTR RO/RO SHIP                     UTR RO/RO SHIP      NNNNNNNNNNNNYYYY          
00473    0629202400449200059890007187000673800067380008086000808600000000000000000425201STSTDSTD87NWORK           NNNUTR RO/RO SHIP                     UTR RO/RO SHIP      NNNNNNNNNNNNYYYY          
00474    0629202400572500076330009160000858800085880010305001030500000000000000000548501STSTDSTD87NWORK           NNNUTR RO/RO SHIP                     UTR RO/RO SHIP      NNNNNNNNNNNNYYYY          
00475    0629202400572500076330009160000858800085880010305001030500000000000000000548501STSTDSTD87NWORK           NNNUTR RO/RO SHIP                     UTR RO/RO SHIP      NNNNNNNNNNNNYYYY          
00490    0629202400419200055890006707000628800062880007546000754600000000000000000395201LSSTDSTD87NWORK           NNNDUMP TRUCK-HEAVY                   DUMP TRUCK-HEAVY    NNNNNNNNNNNNYYYY          
00491    0629202400429200057230006867000643800064380007726000772600000000000000000405201LSSTDSTD87NWORK           NNNDUMP TRUCK-HEAVY                   DUMP TRUCK-HEAVY    NNNNNNNNNNNNYYYY          
00492    0629202400449200059890007187000673800067380008086000808600000000000000000425201LSSTDSTD87NWORK           NNNDUMP TRUCK-HEAVY                   DUMP TRUCK-HEAVY    NNNNNNNNNNNNYYYY          
00493    0629202400449200059890007187000673800067380008086000808600000000000000000425201LSSTDSTD87NWORK           NNNDUMP TRUCK-HEAVY                   DUMP TRUCK-HEAVY    NNNNNNNNNNNNYYYY          
00494    0629202400572500076330009160000858800085880010305001030500000000000000000548501LSSTDSTD87NWORK           NNNDUMP TRUCK-HEAVY                   DUMP TRUCK-HEAVY    NNNNNNNNNNNNYYYY          
00495    0629202400572500076330009160000858800085880010305001030500000000000000000548501LSSTDSTD87NWORK           NNNDUMP TRUCK-HEAVY                   DUMP TRUCK-HEAVY    NNNNNNNNNNNNYYYY          
00520    0629202400419200055890006707000628800062880007546000754600000000000000000395201SHSTDSTD87NWORK           NNNGANG BOSS                          GANG BOSS           YYYYYYYYYYYYNNNN          
00521    0629202400429200057230006867000643800064380007726000772600000000000000000405201SHSTDSTD87NWORK           NNNGANG BOSS                          GANG BOSS           YYYYYYYYYYYYNNNN          
00522    0629202400449200059890007187000673800067380008086000808600000000000000000425201SHSTDSTD87NWORK           NNNGANG BOSS                          GANG BOSS           YYYYYYYYYYYYNNNN          
00523    0629202400449200059890007187000673800067380008086000808600000000000000000425201SHSTDSTD87NWORK           NNNGANG BOSS                          GANG BOSS           YYYYYYYYYYYYNNNN          
00524    0629202400572500076330009160000858800085880010305001030500000000000000000548501SHSTDSTD87NWORK           NNNGANG BOSS                          GANG BOSS           YYYYYYYYYYYYNNNN          
00525    0629202400572500076330009160000858800085880010305001030500000000000000000548501SHSTDSTD87NWORK           NNNGANG BOSS                          GANG BOSS           YYYYYYYYYYYYNNNN          
00530    0629202400441900058920007070000662900066290007954000795400000000000000000395201LHSTDSTD87NWORK           NNNPAYLOADER OVER 15 TONS             PAYLOADER OVER 15 TOYYYYYYYYYYYYYYYY          
00531    0629202400451900060250007230000677900067790008134000813400000000000000000405201LHSTDSTD87NWORK           NNNPAYLOADER OVER 15 TONS             PAYLOADER OVER 15 TOYYYYYYYYYYYYYYYY          
00532    0629202400471900062920007550000707900070790008494000849400000000000000000425201LHSTDSTD87NWORK           NNNPAYLOADER OVER 15 TONS             PAYLOADER OVER 15 TOYYYYYYYYYYYYYYYY          
00533    0629202400471900062920007550000707900070790008494000849400000000000000000425201LHSTDSTD87NWORK           NNNPAYLOADER OVER 15 TONS             PAYLOADER OVER 15 TOYYYYYYYYYYYYYYYY          
00534    0629202400595200079360009523000892800089280010714001071400000000000000000548501LHSTDSTD87NWORK           NNNPAYLOADER OVER 15 TONS             PAYLOADER OVER 15 TOYYYYYYYYYYYYYYYY          
00535    0629202400595200079360009523000892800089280010714001071400000000000000000548501LHSTDSTD87NWORK           NNNPAYLOADER OVER 15 TONS             PAYLOADER OVER 15 TOYYYYYYYYYYYYYYYY          
00540    0629202400419200055890006707000628800062880007546000754600000000000000000395201HTSTDSTD87NWORK           NNNHATCH BOSS TENDER                  HATCH BOSS TENDER   NNNNNNNNNNNNYYYY          
00541    0629202400429200057230006867000643800064380007726000772600000000000000000405201HTSTDSTD87NWORK           NNNHATCH BOSS TENDER                  HATCH BOSS TENDER   NNNNNNNNNNNNYYYY          
00542    0629202400449200059890007187000673800067380008086000808600000000000000000425201HTSTDSTD87NWORK           NNNHATCH BOSS TENDER                  HATCH BOSS TENDER   NNNNNNNNNNNNYYYY          
00543    0629202400449200059890007187000673800067380008086000808600000000000000000425201HTSTDSTD87NWORK           NNNHATCH BOSS TENDER                  HATCH BOSS TENDER   NNNNNNNNNNNNYYYY          
00544    0629202400572500076330009160000858800085880010305001030500000000000000000548501HTSTDSTD87NWORK           NNNHATCH BOSS TENDER                  HATCH BOSS TENDER   NNNNNNNNNNNNYYYY          
00545    0629202400572500076330009160000858800085880010305001030500000000000000000548501HTSTDSTD87NWORK           NNNHATCH BOSS TENDER                  HATCH BOSS TENDER   NNNNNNNNNNNNYYYY          
00550    0629202400441900058920007070000662900066290007954000795400000000000000000395201LHSTDSTD87NWORK           NCNLIFT TRUCK-HEAVY                   LIFT TRUCK-HEAVY    YYYYYYYYYYYYYYYY          
00551    0629202400451900060250007230000677900067790008134000813400000000000000000405201LHSTDSTD87NWORK           NCNLIFT TRUCK-HEAVY                   LIFT TRUCK-HEAVY    YYYYYYYYYYYYYYYY          
00552    0629202400471900062920007550000707900070790008494000849400000000000000000425201LHSTDSTD87NWORK           NCNLIFT TRUCK-HEAVY                   LIFT TRUCK-HEAVY    YYYYYYYYYYYYYYYY          
00553    0629202400471900062920007550000707900070790008494000849400000000000000000425201LHSTDSTD87NWORK           NCNLIFT TRUCK-HEAVY                   LIFT TRUCK-HEAVY    YYYYYYYYYYYYYYYY          
00554    0629202400595200079360009523000892800089280010714001071400000000000000000548501LHSTDSTD87NWORK           NCNLIFT TRUCK-HEAVY                   LIFT TRUCK-HEAVY    YYYYYYYYYYYYYYYY          
00555    0629202400595200079360009523000892800089280010714001071400000000000000000548501LHSTDSTD87NWORK           NCNLIFT TRUCK-HEAVY                   LIFT TRUCK-HEAVY    YYYYYYYYYYYYYYYY          
00570    0629202400441900058920007070000662900066290007954000795400000000000000000395201LHSTDSTD87NWORK           NCNUTILITY LIFT DRIVER - WORK         ULD - WORK          YYYYNNNNNNNNNNNN          
00571    0629202400451900060250007230000677900067790008134000813400000000000000000405201LHSTDSTD87NWORK           NCNUTILITY LIFT DRIVER - WORK         ULD - WORK          YYYYNNNNNNNNNNNN          
00572    0629202400471900062920007550000707900070790008494000849400000000000000000425201LHSTDSTD87NWORK           NCNUTILITY LIFT DRIVER - WORK         ULD - WORK          YYYYNNNNNNNNNNNN          
00573    0629202400471900062920007550000707900070790008494000849400000000000000000425201LHSTDSTD87NWORK           NCNUTILITY LIFT DRIVER - WORK         ULD - WORK          YYYYNNNNNNNNNNNN          
00574    0629202400595200079360009523000892800089280010714001071400000000000000000548501LHSTDSTD87NWORK           NCNUTILITY LIFT DRIVER - WORK         ULD - WORK          YYYYNNNNNNNNNNNN          
00575    0629202400595200079360009523000892800089280010714001071400000000000000000548501LHSTDSTD87NWORK           NCNUTILITY LIFT DRIVER - WORK         ULD - WORK          YYYYNNNNNNNNNNNN          
00580    0629202400441900058920007070000662900066290007954000795400000000000000000395201LHSTDSTD87NGUARANTEE      NCNUTILITY LIFT DRIVER - GUARANTEE    ULD - GUARANTEE     YYYYNNNNNNNNNNNN          
00581    0629202400451900060250007230000677900067790008134000813400000000000000000405201LHSTDSTD87NGUARANTEE      NCNUTILITY LIFT DRIVER - GUARANTEE    ULD - GUARANTEE     YYYYNNNNNNNNNNNN          
00582    0629202400471900062920007550000707900070790008494000849400000000000000000425201LHSTDSTD87NGUARANTEE      NCNUTILITY LIFT DRIVER - GUARANTEE    ULD - GUARANTEE     YYYYNNNNNNNNNNNN          
00583    0629202400471900062920007550000707900070790008494000849400000000000000000425201LHSTDSTD87NGUARANTEE      NCNUTILITY LIFT DRIVER - GUARANTEE    ULD - GUARANTEE     YYYYNNNNNNNNNNNN          
00584    0629202400595200079360009523000892800089280010714001071400000000000000000548501LHSTDSTD87NGUARANTEE      NCNUTILITY LIFT DRIVER - GUARANTEE    ULD - GUARANTEE     YYYYNNNNNNNNNNNN          
00585    0629202400595200079360009523000892800089280010714001071400000000000000000548501LHSTDSTD87NGUARANTEE      NCNUTILITY LIFT DRIVER - GUARANTEE    ULD - GUARANTEE     YYYYNNNNNNNNNNNN          
00610    0629202400453200060430007251000679800067980008158000815800000000000000000395201TSSTDSTD87NWORK           NNNTOP HANDLER                        TOP HANDLER         YYYYYYYYYYYYYYYY          
00611    0629202400463200061760007411000694800069480008338000833800000000000000000405201TSSTDSTD87NWORK           NNNTOP HANDLER                        TOP HANDLER         YYYYYYYYYYYYYYYY          
00612    0629202400483200064430007731000724800072480008698000869800000000000000000425201TSSTDSTD87NWORK           NNNTOP HANDLER                        TOP HANDLER         YYYYYYYYYYYYYYYY          
00613    0629202400483200064430007731000724800072480008698000869800000000000000000425201TSSTDSTD87NWORK           NNNTOP HANDLER                        TOP HANDLER         YYYYYYYYYYYYYYYY          
00614    0629202400606500080870009704000909800090980010917001091700000000000000000548501TSSTDSTD87NWORK           NNNTOP HANDLER                        TOP HANDLER         YYYYYYYYYYYYYYYY          
00615    0629202400606500080870009704000909800090980010917001091700000000000000000548501TSSTDSTD87NWORK           NNNTOP HANDLER                        TOP HANDLER         YYYYYYYYYYYYYYYY          
00620    0629202400453200060430007251000679800067980008158000815800000000000000000395201TSSTDSTD87NWORK           NNNSIDE PICK                          SIDE PICK           YYYYYYYYYYYYYYYY          
00621    0629202400463200061760007411000694800069480008338000833800000000000000000405201TSSTDSTD87NWORK           NNNSIDE PICK                          SIDE PICK           YYYYYYYYYYYYYYYY          
00622    0629202400483200064430007731000724800072480008698000869800000000000000000425201TSSTDSTD87NWORK           NNNSIDE PICK                          SIDE PICK           YYYYYYYYYYYYYYYY          
00623    0629202400483200064430007731000724800072480008698000869800000000000000000425201TSSTDSTD87NWORK           NNNSIDE PICK                          SIDE PICK           YYYYYYYYYYYYYYYY          
00624    0629202400606500080870009704000909800090980010917001091700000000000000000548501TSSTDSTD87NWORK           NNNSIDE PICK                          SIDE PICK           YYYYYYYYYYYYYYYY          
00625    0629202400606500080870009704000909800090980010917001091700000000000000000548501TSSTDSTD87NWORK           NNNSIDE PICK                          SIDE PICK           YYYYYYYYYYYYYYYY          
00630    0629202400453200060430007251000679800067980008158000815800000000000000000395201TSSTDSTD87NWORK           NNNREACH STACKER                      REACH STACKER       YYYYYYYYYYYYYYYY          
00631    0629202400463200061760007411000694800069480008338000833800000000000000000405201TSSTDSTD87NWORK           NNNREACH STACKER                      REACH STACKER       YYYYYYYYYYYYYYYY          
00632    0629202400483200064430007731000724800072480008698000869800000000000000000425201TSSTDSTD87NWORK           NNNREACH STACKER                      REACH STACKER       YYYYYYYYYYYYYYYY          
00633    0629202400483200064430007731000724800072480008698000869800000000000000000425201TSSTDSTD87NWORK           NNNREACH STACKER                      REACH STACKER       YYYYYYYYYYYYYYYY          
00634    0629202400606500080870009704000909800090980010917001091700000000000000000548501TSSTDSTD87NWORK           NNNREACH STACKER                      REACH STACKER       YYYYYYYYYYYYYYYY          
00635    0629202400606500080870009704000909800090980010917001091700000000000000000548501TSSTDSTD87NWORK           NNNREACH STACKER                      REACH STACKER       YYYYYYYYYYYYYYYY          
00640    0629202400453200060430007251000679800067980008158000815800000000000000000395201TSSTDSTD87NWORK           YNNSTEADY TOP HANDLER                 STEADY TOP HANDLER  NNNNYYYYNNNNNNNN          
00641    0629202400463200061760007411000694800069480008338000833800000000000000000405201TSSTDSTD87NWORK           YNNSTEADY TOP HANDLER                 STEADY TOP HANDLER  NNNNYYYYNNNNNNNN          
00642    0629202400483200064430007731000724800072480008698000869800000000000000000425201TSSTDSTD87NWORK           YNNSTEADY TOP HANDLER                 STEADY TOP HANDLER  NNNNYYYYNNNNNNNN          
00643    0629202400483200064430007731000724800072480008698000869800000000000000000425201TSSTDSTD87NWORK           YNNSTEADY TOP HANDLER                 STEADY TOP HANDLER  NNNNYYYYNNNNNNNN          
00644    0629202400606500080870009704000909800090980010917001091700000000000000000548501TSSTDSTD87NWORK           YNNSTEADY TOP HANDLER                 STEADY TOP HANDLER  NNNNYYYYNNNNNNNN          
00645    0629202400606500080870009704000909800090980010917001091700000000000000000548501TSSTDSTD87NWORK           YNNSTEADY TOP HANDLER                 STEADY TOP HANDLER  NNNNYYYYNNNNNNNN          
00650    0629202400453200060430007251000679800067980008158000815800000000000000000395201CRSTDSTD87NWORK           NCNMOBILE CRANE SK3 60MT              MOBILE CRN SK3 60MT YYYYYYYYYYYYYYYY          
00651    0629202400463200061760007411000694800069480008338000833800000000000000000405201CRSTDSTD87NWORK           NCNMOBILE CRANE SK3 60MT              MOBILE CRN SK3 60MT YYYYYYYYYYYYYYYY          
00652    0629202400483200064430007731000724800072480008698000869800000000000000000425201CRSTDSTD87NWORK           NCNMOBILE CRANE SK3 60MT              MOBILE CRN SK3 60MT YYYYYYYYYYYYYYYY          
00653    0629202400483200064430007731000724800072480008698000869800000000000000000425201CRSTDSTD87NWORK           NCNMOBILE CRANE SK3 60MT              MOBILE CRN SK3 60MT YYYYYYYYYYYYYYYY          
00654    0629202400606500080870009704000909800090980010917001091700000000000000000548501CRSTDSTD87NWORK           NCNMOBILE CRANE SK3 60MT              MOBILE CRN SK3 60MT YYYYYYYYYYYYYYYY          
00655    0629202400606500080870009704000909800090980010917001091700000000000000000548501CRSTDSTD87NWORK           NCNMOBILE CRANE SK3 60MT              MOBILE CRN SK3 60MT YYYYYYYYYYYYYYYY          
00660    0629202400453200060430007251000679800067980008158000815800000000000000000395201CRSTDSTD87NWORK           NNNLA-LB WHIRLY/WINCH                 LA-LB WHIRLY/WINCH  NNNNYYYYNNNNNNNN          
00661    0629202400463200061760007411000694800069480008338000833800000000000000000405201CRSTDSTD87NWORK           NNNLA-LB WHIRLY/WINCH                 LA-LB WHIRLY/WINCH  NNNNYYYYNNNNNNNN          
00662    0629202400483200064430007731000724800072480008698000869800000000000000000425201CRSTDSTD87NWORK           NNNLA-LB WHIRLY/WINCH                 LA-LB WHIRLY/WINCH  NNNNYYYYNNNNNNNN          
00663    0629202400483200064430007731000724800072480008698000869800000000000000000425201CRSTDSTD87NWORK           NNNLA-LB WHIRLY/WINCH                 LA-LB WHIRLY/WINCH  NNNNYYYYNNNNNNNN          
00664    0629202400606500080870009704000909800090980010917001091700000000000000000548501CRSTDSTD87NWORK           NNNLA-LB WHIRLY/WINCH                 LA-LB WHIRLY/WINCH  NNNNYYYYNNNNNNNN          
00665    0629202400606500080870009704000909800090980010917001091700000000000000000548501CRSTDSTD87NWORK           NNNLA-LB WHIRLY/WINCH                 LA-LB WHIRLY/WINCH  NNNNYYYYNNNNNNNN          
00670    0629202400453200060430007251000679800067980008158000815800000000000000000395201CRSTDSTD87NWORK           NTNHALL CRANE RATED EQUIPMENT-YARD    HALL CRN RT EQ  YARDYYYYYYYYYYYYYYYY          
00671    0629202400463200061760007411000694800069480008338000833800000000000000000405201CRSTDSTD87NWORK           NTNHALL CRANE RATED EQUIPMENT-YARD    HALL CRN RT EQ  YARDYYYYYYYYYYYYYYYY          
00672    0629202400483200064430007731000724800072480008698000869800000000000000000425201CRSTDSTD87NWORK           NTNHALL CRANE RATED EQUIPMENT-YARD    HALL CRN RT EQ  YARDYYYYYYYYYYYYYYYY          
00673    0629202400483200064430007731000724800072480008698000869800000000000000000425201CRSTDSTD87NWORK           NTNHALL CRANE RATED EQUIPMENT-YARD    HALL CRN RT EQ  YARDYYYYYYYYYYYYYYYY          
00674    0629202400606500080870009704000909800090980010917001091700000000000000000548501CRSTDSTD87NWORK           NTNHALL CRANE RATED EQUIPMENT-YARD    HALL CRN RT EQ  YARDYYYYYYYYYYYYYYYY          
00675    0629202400606500080870009704000909800090980010917001091700000000000000000548501CRSTDSTD87NWORK           NTNHALL CRANE RATED EQUIPMENT-YARD    HALL CRN RT EQ  YARDYYYYYYYYYYYYYYYY          
00680    0629202400453200060430007251000679800067980008158000815800000000000000000395201CRSTDSTD87NWORK           YNNLA/LB STEADY TRANSTAINER           LA/LB STEADY TRANS  NNNNYYYYNNNNNNNNLBCRANEW  
00681    0629202400463200061760007411000694800069480008338000833800000000000000000405201CRSTDSTD87NWORK           YNNLA/LB STEADY TRANSTAINER           LA/LB STEADY TRANS  NNNNYYYYNNNNNNNNLBCRANEW  
00682    0629202400483200064430007731000724800072480008698000869800000000000000000425201CRSTDSTD87NWORK           YNNLA/LB STEADY TRANSTAINER           LA/LB STEADY TRANS  NNNNYYYYNNNNNNNNLBCRANEW  
00683    0629202400483200064430007731000724800072480008698000869800000000000000000425201CRSTDSTD87NWORK           YNNLA/LB STEADY TRANSTAINER           LA/LB STEADY TRANS  NNNNYYYYNNNNNNNNLBCRANEW  
00684    0629202400606500080870009704000909800090980010917001091700000000000000000548501CRSTDSTD87NWORK           YNNLA/LB STEADY TRANSTAINER           LA/LB STEADY TRANS  NNNNYYYYNNNNNNNNLBCRANEW  
00685    0629202400606500080870009704000909800090980010917001091700000000000000000548501CRSTDSTD87NWORK           YNNLA/LB STEADY TRANSTAINER           LA/LB STEADY TRANS  NNNNYYYYNNNNNNNNLBCRANEW  
00700    0629202400419200055890006707000628800062880007546000754600000000000000000395201BDSTDSTD87NWORK           NNNBULLDOZER/CATERPILLAR              BULLDOZER/CATERPILLAYYYYYYYYYYYYYYYY          
00701    0629202400429200057230006867000643800064380007726000772600000000000000000405201BDSTDSTD87NWORK           NNNBULLDOZER/CATERPILLAR              BULLDOZER/CATERPILLAYYYYYYYYYYYYYYYY          
00702    0629202400449200059890007187000673800067380008086000808600000000000000000425201BDSTDSTD87NWORK           NNNBULLDOZER/CATERPILLAR              BULLDOZER/CATERPILLAYYYYYYYYYYYYYYYY          
00703    0629202400449200059890007187000673800067380008086000808600000000000000000425201BDSTDSTD87NWORK           NNNBULLDOZER/CATERPILLAR              BULLDOZER/CATERPILLAYYYYYYYYYYYYYYYY          
00704    0629202400572500076330009160000858800085880010305001030500000000000000000548501BDSTDSTD87NWORK           NNNBULLDOZER/CATERPILLAR              BULLDOZER/CATERPILLAYYYYYYYYYYYYYYYY          
00705    0629202400572500076330009160000858800085880010305001030500000000000000000548501BDSTDSTD87NWORK           NNNBULLDOZER/CATERPILLAR              BULLDOZER/CATERPILLAYYYYYYYYYYYYYYYY          
00710    0629202400419200055890006707000628800062880007546000754600000000000000000395201TRSTDSTD87NWORK           NNND.O.T.TRUCK DRIVER                 D.O.T.TRUCK DRIVER  YYYYYYYYYYYYYYYY          
00711    0629202400429200057230006867000643800064380007726000772600000000000000000405201TRSTDSTD87NWORK           NNND.O.T.TRUCK DRIVER                 D.O.T.TRUCK DRIVER  YYYYYYYYYYYYYYYY          
00712    0629202400449200059890007187000673800067380008086000808600000000000000000425201TRSTDSTD87NWORK           NNND.O.T.TRUCK DRIVER                 D.O.T.TRUCK DRIVER  YYYYYYYYYYYYYYYY          
00713    0629202400449200059890007187000673800067380008086000808600000000000000000425201TRSTDSTD87NWORK           NNND.O.T.TRUCK DRIVER                 D.O.T.TRUCK DRIVER  YYYYYYYYYYYYYYYY          
00714    0629202400572500076330009160000858800085880010305001030500000000000000000548501TRSTDSTD87NWORK           NNND.O.T.TRUCK DRIVER                 D.O.T.TRUCK DRIVER  YYYYYYYYYYYYYYYY          
00715    0629202400572500076330009160000858800085880010305001030500000000000000000548501TRSTDSTD87NWORK           NNND.O.T.TRUCK DRIVER                 D.O.T.TRUCK DRIVER  YYYYYYYYYYYYYYYY          
00750    0629202400453200060430007251000679800067980008158000815800000000000000000395201TSSTDSTD87NGUARANTEE      NNYMONTHLY UTR GUARANTEE TOP/SIDE PICKMONTHLY UTR GUARANTENNNNYYYYNNNNNNNN          
00751    0629202400463200061760007411000694800069480008338000833800000000000000000405201TSSTDSTD87NGUARANTEE      NNYMONTHLY UTR GUARANTEE TOP/SIDE PICKMONTHLY UTR GUARANTENNNNYYYYNNNNNNNN          
00752    0629202400483200064430007731000724800072480008698000869800000000000000000425201TSSTDSTD87NGUARANTEE      NNYMONTHLY UTR GUARANTEE TOP/SIDE PICKMONTHLY UTR GUARANTENNNNYYYYNNNNNNNN          
00753    0629202400483200064430007731000724800072480008698000869800000000000000000425201TSSTDSTD87NGUARANTEE      NNYMONTHLY UTR GUARANTEE TOP/SIDE PICKMONTHLY UTR GUARANTENNNNYYYYNNNNNNNN          
00754    0629202400606500080870009704000909800090980010917001091700000000000000000548501TSSTDSTD87NGUARANTEE      NNYMONTHLY UTR GUARANTEE TOP/SIDE PICKMONTHLY UTR GUARANTENNNNYYYYNNNNNNNN          
00755    0629202400606500080870009704000909800090980010917001091700000000000000000548501TSSTDSTD87NGUARANTEE      NNYMONTHLY UTR GUARANTEE TOP/SIDE PICKMONTHLY UTR GUARANTENNNNYYYYNNNNNNNN          
00780    0629202400441900058920007070000662900066290007954000795400000000000000000395201CYSTDSTD87NWORK           NNNRAIL CAR PUSHER - CONTAINER        RAIL CAR PUSHER - COYYYYYYYYNNNNYYYY          
00781    0629202400451900060250007230000677900067790008134000813400000000000000000405201CYSTDSTD87NWORK           NNNRAIL CAR PUSHER - CONTAINER        RAIL CAR PUSHER - COYYYYYYYYNNNNYYYY          
00782    0629202400471900062920007550000707900070790008494000849400000000000000000425201CYSTDSTD87NWORK           NNNRAIL CAR PUSHER - CONTAINER        RAIL CAR PUSHER - COYYYYYYYYNNNNYYYY          
00783    0629202400471900062920007550000707900070790008494000849400000000000000000425201CYSTDSTD87NWORK           NNNRAIL CAR PUSHER - CONTAINER        RAIL CAR PUSHER - COYYYYYYYYNNNNYYYY          
00784    0629202400595200079360009523000892800089280010714001071400000000000000000548501CYSTDSTD87NWORK           NNNRAIL CAR PUSHER - CONTAINER        RAIL CAR PUSHER - COYYYYYYYYNNNNYYYY          
00785    0629202400595200079360009523000892800089280010714001071400000000000000000548501CYSTDSTD87NWORK           NNNRAIL CAR PUSHER - CONTAINER        RAIL CAR PUSHER - COYYYYYYYYNNNNYYYY          
00790    0629202400453200060430007251000679800067980008158000815800000000000000000395201TSSTDSTD87NWORK           NTNMTHLY/WKLY UTR/ULD WORK - TOP/SIDE M/W UTR/ULD WORK T/SYYYYYYYYNNNNNNNN          
00791    0629202400463200061760007411000694800069480008338000833800000000000000000405201TSSTDSTD87NWORK           NTNMTHLY/WKLY UTR/ULD WORK - TOP/SIDE M/W UTR/ULD WORK T/SYYYYYYYYNNNNNNNN          
00792    0629202400483200064430007731000724800072480008698000869800000000000000000425201TSSTDSTD87NWORK           NTNMTHLY/WKLY UTR/ULD WORK - TOP/SIDE M/W UTR/ULD WORK T/SYYYYYYYYNNNNNNNN          
00793    0629202400483200064430007731000724800072480008698000869800000000000000000425201TSSTDSTD87NWORK           NTNMTHLY/WKLY UTR/ULD WORK - TOP/SIDE M/W UTR/ULD WORK T/SYYYYYYYYNNNNNNNN          
00794    0629202400606500080870009704000909800090980010917001091700000000000000000548501TSSTDSTD87NWORK           NTNMTHLY/WKLY UTR/ULD WORK - TOP/SIDE M/W UTR/ULD WORK T/SYYYYYYYYNNNNNNNN          
00795    0629202400606500080870009704000909800090980010917001091700000000000000000548501TSSTDSTD87NWORK           NTNMTHLY/WKLY UTR/ULD WORK - TOP/SIDE M/W UTR/ULD WORK T/SYYYYYYYYNNNNNNNN          
00800    0629202400441900058920007070000662900066290007954000795400000000000000000395201CYSTDSTD87NWORK           NTNBULKLOADER OPERATOR                BULKLOADER OPERATOR YYYYYYYYYYYYYYYY          
00801    0629202400451900060250007230000677900067790008134000813400000000000000000405201CYSTDSTD87NWORK           NTNBULKLOADER OPERATOR                BULKLOADER OPERATOR YYYYYYYYYYYYYYYY          
00802    0629202400471900062920007550000707900070790008494000849400000000000000000425201CYSTDSTD87NWORK           NTNBULKLOADER OPERATOR                BULKLOADER OPERATOR YYYYYYYYYYYYYYYY          
00803    0629202400471900062920007550000707900070790008494000849400000000000000000425201CYSTDSTD87NWORK           NTNBULKLOADER OPERATOR                BULKLOADER OPERATOR YYYYYYYYYYYYYYYY          
00804    0629202400595200079360009523000892800089280010714001071400000000000000000548501CYSTDSTD87NWORK           NTNBULKLOADER OPERATOR                BULKLOADER OPERATOR YYYYYYYYYYYYYYYY          
00805    0629202400595200079360009523000892800089280010714001071400000000000000000548501CYSTDSTD87NWORK           NTNBULKLOADER OPERATOR                BULKLOADER OPERATOR YYYYYYYYYYYYYYYY          
00810    0629202400441900058920007070000662900066290007954000795400000000000000000395201CRSTDSTD87NWORK           NNNCRANE BARGE OPERATOR               CRANE BARGE OPERATORNNNNNNNNYYYYYYYY          
00811    0629202400451900060250007230000677900067790008134000813400000000000000000405201CRSTDSTD87NWORK           NNNCRANE BARGE OPERATOR               CRANE BARGE OPERATORNNNNNNNNYYYYYYYY          
00812    0629202400471900062920007550000707900070790008494000849400000000000000000425201CRSTDSTD87NWORK           NNNCRANE BARGE OPERATOR               CRANE BARGE OPERATORNNNNNNNNYYYYYYYY          
00813    0629202400471900062920007550000707900070790008494000849400000000000000000425201CRSTDSTD87NWORK           NNNCRANE BARGE OPERATOR               CRANE BARGE OPERATORNNNNNNNNYYYYYYYY          
00814    0629202400595200079360009523000892800089280010714001071400000000000000000548501CRSTDSTD87NWORK           NNNCRANE BARGE OPERATOR               CRANE BARGE OPERATORNNNNNNNNYYYYYYYY          
00815    0629202400595200079360009523000892800089280010714001071400000000000000000548501CRSTDSTD87NWORK           NNNCRANE BARGE OPERATOR               CRANE BARGE OPERATORNNNNNNNNYYYYYYYY          
00830    0629202400453200060430007251000679800067980008158000815800000000000000000395201TTSTDSTD87NWORK           NNNTRANSTAINER OPERATOR               TRANSTAINER OPERATORYYYYNNNNYYYYYYYY          
00831    0629202400463200061760007411000694800069480008338000833800000000000000000405201TTSTDSTD87NWORK           NNNTRANSTAINER OPERATOR               TRANSTAINER OPERATORYYYYNNNNYYYYYYYY          
00832    0629202400483200064430007731000724800072480008698000869800000000000000000425201TTSTDSTD87NWORK           NNNTRANSTAINER OPERATOR               TRANSTAINER OPERATORYYYYNNNNYYYYYYYY          
00833    0629202400483200064430007731000724800072480008698000869800000000000000000425201TTSTDSTD87NWORK           NNNTRANSTAINER OPERATOR               TRANSTAINER OPERATORYYYYNNNNYYYYYYYY          
00834    0629202400606500080870009704000909800090980010917001091700000000000000000548501TTSTDSTD87NWORK           NNNTRANSTAINER OPERATOR               TRANSTAINER OPERATORYYYYNNNNYYYYYYYY          
00835    0629202400606500080870009704000909800090980010917001091700000000000000000548501TTSTDSTD87NWORK           NNNTRANSTAINER OPERATOR               TRANSTAINER OPERATORYYYYNNNNYYYYYYYY          
00840    0629202400453200060430007251000679800067980008158000815800000000000000000395201CRSTDSTD87NWORK           NTNCRANE CONTAINER GANTRY             CRANE CONTAINER GANTYYYYYYYYYYYYYYYYCBOARDOCC 
00841    0629202400463200061760007411000694800069480008338000833800000000000000000405201CRSTDSTD87NWORK           NTNCRANE CONTAINER GANTRY             CRANE CONTAINER GANTYYYYYYYYYYYYYYYYCBOARDOCC 
00842    0629202400483200064430007731000724800072480008698000869800000000000000000425201CRSTDSTD87NWORK           NTNCRANE CONTAINER GANTRY             CRANE CONTAINER GANTYYYYYYYYYYYYYYYYCBOARDOCC 
00843    0629202400483200064430007731000724800072480008698000869800000000000000000425201CRSTDSTD87NWORK           NTNCRANE CONTAINER GANTRY             CRANE CONTAINER GANTYYYYYYYYYYYYYYYYCBOARDOCC 
00844    0629202400606500080870009704000909800090980010917001091700000000000000000548501CRSTDSTD87NWORK           NTNCRANE CONTAINER GANTRY             CRANE CONTAINER GANTYYYYYYYYYYYYYYYYCBOARDOCC 
00845    0629202400606500080870009704000909800090980010917001091700000000000000000548501CRSTDSTD87NWORK           NTNCRANE CONTAINER GANTRY             CRANE CONTAINER GANTYYYYYYYYYYYYYYYYCBOARDOCC 
00850    0629202400441900058920007070000662900066290007954000795400000000000000000395201WCSTDSTD87NWORK           NCNCRANE MOBILE                       CRANE MOBILE        YYYYYYYYYYYYYYYY          
00851    0629202400451900060250007230000677900067790008134000813400000000000000000405201WCSTDSTD87NWORK           NCNCRANE MOBILE                       CRANE MOBILE        YYYYYYYYYYYYYYYY          
00852    0629202400471900062920007550000707900070790008494000849400000000000000000425201WCSTDSTD87NWORK           NCNCRANE MOBILE                       CRANE MOBILE        YYYYYYYYYYYYYYYY          
00853    0629202400471900062920007550000707900070790008494000849400000000000000000425201WCSTDSTD87NWORK           NCNCRANE MOBILE                       CRANE MOBILE        YYYYYYYYYYYYYYYY          
00854    0629202400595200079360009523000892800089280010714001071400000000000000000548501WCSTDSTD87NWORK           NCNCRANE MOBILE                       CRANE MOBILE        YYYYYYYYYYYYYYYY          
00855    0629202400595200079360009523000892800089280010714001071400000000000000000548501WCSTDSTD87NWORK           NCNCRANE MOBILE                       CRANE MOBILE        YYYYYYYYYYYYYYYY          
00860    0629202400441900058920007070000662900066290007954000795400000000000000000395201WCSTDSTD87NWORK           NNNCRANE SHEER LEG / STIFF LEG        CRANE SHEER LEG / STYYYYYYYYYYYYYYYY          
00861    0629202400451900060250007230000677900067790008134000813400000000000000000405201WCSTDSTD87NWORK           NNNCRANE SHEER LEG / STIFF LEG        CRANE SHEER LEG / STYYYYYYYYYYYYYYYY          
00862    0629202400471900062920007550000707900070790008494000849400000000000000000425201WCSTDSTD87NWORK           NNNCRANE SHEER LEG / STIFF LEG        CRANE SHEER LEG / STYYYYYYYYYYYYYYYY          
00863    0629202400471900062920007550000707900070790008494000849400000000000000000425201WCSTDSTD87NWORK           NNNCRANE SHEER LEG / STIFF LEG        CRANE SHEER LEG / STYYYYYYYYYYYYYYYY          
00864    0629202400595200079360009523000892800089280010714001071400000000000000000548501WCSTDSTD87NWORK           NNNCRANE SHEER LEG / STIFF LEG        CRANE SHEER LEG / STYYYYYYYYYYYYYYYY          
00865    0629202400595200079360009523000892800089280010714001071400000000000000000548501WCSTDSTD87NWORK           NNNCRANE SHEER LEG / STIFF LEG        CRANE SHEER LEG / STYYYYYYYYYYYYYYYY          
00870    0629202400441900058920007070000662900066290007954000795400000000000000000395201WCSTDSTD87NWORK           NNNCRANE SHIPBOARD                    CRANE SHIPBOARD     YYYYYYYYYYYYYYYY          
00871    0629202400451900060250007230000677900067790008134000813400000000000000000405201WCSTDSTD87NWORK           NNNCRANE SHIPBOARD                    CRANE SHIPBOARD     YYYYYYYYYYYYYYYY          
00872    0629202400471900062920007550000707900070790008494000849400000000000000000425201WCSTDSTD87NWORK           NNNCRANE SHIPBOARD                    CRANE SHIPBOARD     YYYYYYYYYYYYYYYY          
00873    0629202400471900062920007550000707900070790008494000849400000000000000000425201WCSTDSTD87NWORK           NNNCRANE SHIPBOARD                    CRANE SHIPBOARD     YYYYYYYYYYYYYYYY          
00874    0629202400595200079360009523000892800089280010714001071400000000000000000548501WCSTDSTD87NWORK           NNNCRANE SHIPBOARD                    CRANE SHIPBOARD     YYYYYYYYYYYYYYYY          
00875    0629202400595200079360009523000892800089280010714001071400000000000000000548501WCSTDSTD87NWORK           NNNCRANE SHIPBOARD                    CRANE SHIPBOARD     YYYYYYYYYYYYYYYY          
00880    0629202400441900058920007070000662900066290007954000795400000000000000000395201CRSTDSTD87NWORK           NNNCRANE WHIRLEY                      CRANE WHIRLEY       YYYYYYYYYYYYYYYY          
00881    0629202400451900060250007230000677900067790008134000813400000000000000000405201CRSTDSTD87NWORK           NNNCRANE WHIRLEY                      CRANE WHIRLEY       YYYYYYYYYYYYYYYY          
00882    0629202400471900062920007550000707900070790008494000849400000000000000000425201CRSTDSTD87NWORK           NNNCRANE WHIRLEY                      CRANE WHIRLEY       YYYYYYYYYYYYYYYY          
00883    0629202400471900062920007550000707900070790008494000849400000000000000000425201CRSTDSTD87NWORK           NNNCRANE WHIRLEY                      CRANE WHIRLEY       YYYYYYYYYYYYYYYY          
00884    0629202400595200079360009523000892800089280010714001071400000000000000000548501CRSTDSTD87NWORK           NNNCRANE WHIRLEY                      CRANE WHIRLEY       YYYYYYYYYYYYYYYY          
00885    0629202400595200079360009523000892800089280010714001071400000000000000000548501CRSTDSTD87NWORK           NNNCRANE WHIRLEY                      CRANE WHIRLEY       YYYYYYYYYYYYYYYY          
00890    0629202400453200060430007251000679800067980008158000815800000000000000000395201CRSTDSTD87NDEAD TIME      YNNCRANE STEADY DEAD TIME             CRANE STEADY DEAD TINNNNNNNNYYYYYYYY          
00891    0629202400463200061760007411000694800069480008338000833800000000000000000405201CRSTDSTD87NDEAD TIME      YNNCRANE STEADY DEAD TIME             CRANE STEADY DEAD TINNNNNNNNYYYYYYYY          
00892    0629202400483200064430007731000724800072480008698000869800000000000000000425201CRSTDSTD87NDEAD TIME      YNNCRANE STEADY DEAD TIME             CRANE STEADY DEAD TINNNNNNNNYYYYYYYY          
00893    0629202400483200064430007731000724800072480008698000869800000000000000000425201CRSTDSTD87NDEAD TIME      YNNCRANE STEADY DEAD TIME             CRANE STEADY DEAD TINNNNNNNNYYYYYYYY          
00894    0629202400606500080870009704000909800090980010917001091700000000000000000548501CRSTDSTD87NDEAD TIME      YNNCRANE STEADY DEAD TIME             CRANE STEADY DEAD TINNNNNNNNYYYYYYYY          
00895    0629202400606500080870009704000909800090980010917001091700000000000000000548501CRSTDSTD87NDEAD TIME      YNNCRANE STEADY DEAD TIME             CRANE STEADY DEAD TINNNNNNNNYYYYYYYY          
00900    0629202400453200060430007251000679800067980008158000815800000000000000000395201CRSTDSTD87NWORK           YNNCRANE STEADY TRAINING              CRANE STEADY TRAININYYYYYYYYYYYYYYYY          
00901    0629202400463200061760007411000694800069480008338000833800000000000000000405201CRSTDSTD87NWORK           YNNCRANE STEADY TRAINING              CRANE STEADY TRAININYYYYYYYYYYYYYYYY          
00902    0629202400483200064430007731000724800072480008698000869800000000000000000425201CRSTDSTD87NWORK           YNNCRANE STEADY TRAINING              CRANE STEADY TRAININYYYYYYYYYYYYYYYY          
00903    0629202400483200064430007731000724800072480008698000869800000000000000000425201CRSTDSTD87NWORK           YNNCRANE STEADY TRAINING              CRANE STEADY TRAININYYYYYYYYYYYYYYYY          
00904    0629202400606500080870009704000909800090980010917001091700000000000000000548501CRSTDSTD87NWORK           YNNCRANE STEADY TRAINING              CRANE STEADY TRAININYYYYYYYYYYYYYYYY          
00905    0629202400606500080870009704000909800090980010917001091700000000000000000548501CRSTDSTD87NWORK           YNNCRANE STEADY TRAINING              CRANE STEADY TRAININYYYYYYYYYYYYYYYY          
00910    0629202400441900058920007070000662900066290007954000795400000000000000000395201CYSTDSTD87NWORK           NNNEXCAVATOR/COVERHOIST               EXCAVATOR/COVERHOISTYYYYNNNNYYYYYYYY          
00911    0629202400451900060250007230000677900067790008134000813400000000000000000405201CYSTDSTD87NWORK           NNNEXCAVATOR/COVERHOIST               EXCAVATOR/COVERHOISTYYYYNNNNYYYYYYYY          
00912    0629202400471900062920007550000707900070790008494000849400000000000000000425201CYSTDSTD87NWORK           NNNEXCAVATOR/COVERHOIST               EXCAVATOR/COVERHOISTYYYYNNNNYYYYYYYY          
00913    0629202400471900062920007550000707900070790008494000849400000000000000000425201CYSTDSTD87NWORK           NNNEXCAVATOR/COVERHOIST               EXCAVATOR/COVERHOISTYYYYNNNNYYYYYYYY          
00914    0629202400595200079360009523000892800089280010714001071400000000000000000548501CYSTDSTD87NWORK           NNNEXCAVATOR/COVERHOIST               EXCAVATOR/COVERHOISTYYYYNNNNYYYYYYYY          
00915    0629202400595200079360009523000892800089280010714001071400000000000000000548501CYSTDSTD87NWORK           NNNEXCAVATOR/COVERHOIST               EXCAVATOR/COVERHOISTYYYYNNNNYYYYYYYY          
00920    0629202400441900058920007070000662900066290007954000795400000000000000000395201LLSTDSTD87NWORK           NNNLOG LOADER -SNAPPER-               LOG LOADER -SNAPPER-YYYYNNNNYYYYYYYY          
00921    0629202400451900060250007230000677900067790008134000813400000000000000000405201LLSTDSTD87NWORK           NNNLOG LOADER -SNAPPER-               LOG LOADER -SNAPPER-YYYYNNNNYYYYYYYY          
00922    0629202400471900062920007550000707900070790008494000849400000000000000000425201LLSTDSTD87NWORK           NNNLOG LOADER -SNAPPER-               LOG LOADER -SNAPPER-YYYYNNNNYYYYYYYY          
00923    0629202400471900062920007550000707900070790008494000849400000000000000000425201LLSTDSTD87NWORK           NNNLOG LOADER -SNAPPER-               LOG LOADER -SNAPPER-YYYYNNNNYYYYYYYY          
00924    0629202400595200079360009523000892800089280010714001071400000000000000000548501LLSTDSTD87NWORK           NNNLOG LOADER -SNAPPER-               LOG LOADER -SNAPPER-YYYYNNNNYYYYYYYY          
00925    0629202400595200079360009523000892800089280010714001071400000000000000000548501LLSTDSTD87NWORK           NNNLOG LOADER -SNAPPER-               LOG LOADER -SNAPPER-YYYYNNNNYYYYYYYY          
00930    0629202400453200060430007251000679800067980008158000815800000000000000000395201SRSTDSTD87NWORK           NCNSTRADDLE CARRIER OPERATOR          STRADDLE CARRIER OPEYYYYYYYYYYYYYYYY          
00931    0629202400463200061760007411000694800069480008338000833800000000000000000405201SRSTDSTD87NWORK           NCNSTRADDLE CARRIER OPERATOR          STRADDLE CARRIER OPEYYYYYYYYYYYYYYYY          
00932    0629202400483200064430007731000724800072480008698000869800000000000000000425201SRSTDSTD87NWORK           NCNSTRADDLE CARRIER OPERATOR          STRADDLE CARRIER OPEYYYYYYYYYYYYYYYY          
00933    0629202400483200064430007731000724800072480008698000869800000000000000000425201SRSTDSTD87NWORK           NCNSTRADDLE CARRIER OPERATOR          STRADDLE CARRIER OPEYYYYYYYYYYYYYYYY          
00934    0629202400606500080870009704000909800090980010917001091700000000000000000548501SRSTDSTD87NWORK           NCNSTRADDLE CARRIER OPERATOR          STRADDLE CARRIER OPEYYYYYYYYYYYYYYYY          
00935    0629202400606500080870009704000909800090980010917001091700000000000000000548501SRSTDSTD87NWORK           NCNSTRADDLE CARRIER OPERATOR          STRADDLE CARRIER OPEYYYYYYYYYYYYYYYY          
00940    0629202400441900058920007070000662900066290007954000795400000000000000000395201CYSTDSTD87NWORK           NNNLOCI OPERATOR                      LOCI OPERATOR       YYYYYYYYYYYYYYYY          
00941    0629202400451900060250007230000677900067790008134000813400000000000000000405201CYSTDSTD87NWORK           NNNLOCI OPERATOR                      LOCI OPERATOR       YYYYYYYYYYYYYYYY          
00942    0629202400471900062920007550000707900070790008494000849400000000000000000425201CYSTDSTD87NWORK           NNNLOCI OPERATOR                      LOCI OPERATOR       YYYYYYYYYYYYYYYY          
00943    0629202400471900062920007550000707900070790008494000849400000000000000000425201CYSTDSTD87NWORK           NNNLOCI OPERATOR                      LOCI OPERATOR       YYYYYYYYYYYYYYYY          
00944    0629202400595200079360009523000892800089280010714001071400000000000000000548501CYSTDSTD87NWORK           NNNLOCI OPERATOR                      LOCI OPERATOR       YYYYYYYYYYYYYYYY          
00945    0629202400595200079360009523000892800089280010714001071400000000000000000548501CYSTDSTD87NWORK           NNNLOCI OPERATOR                      LOCI OPERATOR       YYYYYYYYYYYYYYYY          
00950    0629202400453200060430007251000679800067980008158000815800000000000000000395201LHSTDSTD87NWORK           NCNPORT PACKER                        PORT PACKER         NNNNYYYYYYYYYYYY          
00951    0629202400463200061760007411000694800069480008338000833800000000000000000405201LHSTDSTD87NWORK           NCNPORT PACKER                        PORT PACKER         NNNNYYYYYYYYYYYY          
00952    0629202400483200064430007731000724800072480008698000869800000000000000000425201LHSTDSTD87NWORK           NCNPORT PACKER                        PORT PACKER         NNNNYYYYYYYYYYYY          
00953    0629202400483200064430007731000724800072480008698000869800000000000000000425201LHSTDSTD87NWORK           NCNPORT PACKER                        PORT PACKER         NNNNYYYYYYYYYYYY          
00954    0629202400606500080870009704000909800090980010917001091700000000000000000548501LHSTDSTD87NWORK           NCNPORT PACKER                        PORT PACKER         NNNNYYYYYYYYYYYY          
00955    0629202400606500080870009704000909800090980010917001091700000000000000000548501LHSTDSTD87NWORK           NCNPORT PACKER                        PORT PACKER         NNNNYYYYYYYYYYYY          
00960    0629202400453200060430007251000679800067980008158000815800000000000000000395201CRSTDSTD87NWORK           YNNLA/LB STEADY HAMMERHEAD            LA/LB STDY HMR HEAD NNNNYYYYNNNNNNNNLBCRANEW  
00961    0629202400463200061760007411000694800069480008338000833800000000000000000405201CRSTDSTD87NWORK           YNNLA/LB STEADY HAMMERHEAD            LA/LB STDY HMR HEAD NNNNYYYYNNNNNNNNLBCRANEW  
00962    0629202400483200064430007731000724800072480008698000869800000000000000000425201CRSTDSTD87NWORK           YNNLA/LB STEADY HAMMERHEAD            LA/LB STDY HMR HEAD NNNNYYYYNNNNNNNNLBCRANEW  
00963    0629202400483200064430007731000724800072480008698000869800000000000000000425201CRSTDSTD87NWORK           YNNLA/LB STEADY HAMMERHEAD            LA/LB STDY HMR HEAD NNNNYYYYNNNNNNNNLBCRANEW  
00964    0629202400606500080870009704000909800090980010917001091700000000000000000548501CRSTDSTD87NWORK           YNNLA/LB STEADY HAMMERHEAD            LA/LB STDY HMR HEAD NNNNYYYYNNNNNNNNLBCRANEW  
00965    0629202400606500080870009704000909800090980010917001091700000000000000000548501CRSTDSTD87NWORK           YNNLA/LB STEADY HAMMERHEAD            LA/LB STDY HMR HEAD NNNNYYYYNNNNNNNNLBCRANEW  
00970    0701198400000000000000000000000000000000000000000000000000000000000000000000001CRSTDSTD87NGUARANTEE      YNYLA/LB STEADY CRANE GUARANTEE       LA/LB STDY CRN GUAR NNNNYYYYNNNNNNNNLBCRANEG  
00971    0701198400000000000000000000000000000000000000000000000000000000000000000000001CRSTDSTD87NGUARANTEE      YNYLA/LB STEADY CRANE GUARANTEE       LA/LB STDY CRN GUAR NNNNYYYYNNNNNNNNLBCRANEG  
00972    0701198400000000000000000000000000000000000000000000000000000000000000000000001CRSTDSTD87NGUARANTEE      YNYLA/LB STEADY CRANE GUARANTEE       LA/LB STDY CRN GUAR NNNNYYYYNNNNNNNNLBCRANEG  
00973    0701198400000000000000000000000000000000000000000000000000000000000000000000001CRSTDSTD87NGUARANTEE      YNYLA/LB STEADY CRANE GUARANTEE       LA/LB STDY CRN GUAR NNNNYYYYNNNNNNNNLBCRANEG  
00974    0701198400000000000000000000000000000000000000000000000000000000000000000000001CRSTDSTD87NGUARANTEE      YNYLA/LB STEADY CRANE GUARANTEE       LA/LB STDY CRN GUAR NNNNYYYYNNNNNNNNLBCRANEG  
00975    0701198400000000000000000000000000000000000000000000000000000000000000000000001CRSTDSTD87NGUARANTEE      YNYLA/LB STEADY CRANE GUARANTEE       LA/LB STDY CRN GUAR NNNNYYYYNNNNNNNNLBCRANEG  
01000    0629202400395200052690006323000592800059280007114000711400000000000000000395202CKSTDSTD87NWORK           NCNBASIC CLERK - SHIP                 BASIC CLERK - SHIP  YYYYYYYYYYYYYYYYCLERKNO   
01001    0629202400405200054030006483000607800060780007294000729400000000000000000405202CKSTDSTD87NWORK           NCNBASIC CLERK - SHIP                 BASIC CLERK - SHIP  YYYYYYYYYYYYYYYYCLERKNO   
01002    0629202400425200056690006803000637800063780007654000765400000000000000000425202CKSTDSTD87NWORK           NCNBASIC CLERK - SHIP                 BASIC CLERK - SHIP  YYYYYYYYYYYYYYYYCLERKNO   
01003    0629202400425200056690006803000637800063780007654000765400000000000000000425202CKSTDSTD87NWORK           NCNBASIC CLERK - SHIP                 BASIC CLERK - SHIP  YYYYYYYYYYYYYYYYCLERKNO   
01004    0629202400548500073130008776000822800082280009873000987300000000000000000548502CKSTDSTD87NWORK           NCNBASIC CLERK - SHIP                 BASIC CLERK - SHIP  YYYYYYYYYYYYYYYYCLERKNO   
01005    0629202400548500073130008776000822800082280009873000987300000000000000000548502CKSTDSTD87NWORK           NCNBASIC CLERK - SHIP                 BASIC CLERK - SHIP  YYYYYYYYYYYYYYYYCLERKNO   
01010    0629202400395200052690006323000592800059280007114000711400000000000000000395202CKSTDSTD87NWORK           NCNBASIC CLERK - DOCK                 BASIC CLERK - DOCK  YYYYYYYYYYYYYYYYCLERKNO   
01011    0629202400405200054030006483000607800060780007294000729400000000000000000405202CKSTDSTD87NWORK           NCNBASIC CLERK - DOCK                 BASIC CLERK - DOCK  YYYYYYYYYYYYYYYYCLERKNO   
01012    0629202400425200056690006803000637800063780007654000765400000000000000000425202CKSTDSTD87NWORK           NCNBASIC CLERK - DOCK                 BASIC CLERK - DOCK  YYYYYYYYYYYYYYYYCLERKNO   
01013    0629202400425200056690006803000637800063780007654000765400000000000000000425202CKSTDSTD87NWORK           NCNBASIC CLERK - DOCK                 BASIC CLERK - DOCK  YYYYYYYYYYYYYYYYCLERKNO   
01014    0629202400548500073130008776000822800082280009873000987300000000000000000548502CKSTDSTD87NWORK           NCNBASIC CLERK - DOCK                 BASIC CLERK - DOCK  YYYYYYYYYYYYYYYYCLERKNO   
01015    0629202400548500073130008776000822800082280009873000987300000000000000000548502CKSTDSTD87NWORK           NCNBASIC CLERK - DOCK                 BASIC CLERK - DOCK  YYYYYYYYYYYYYYYYCLERKNO   
01020    0629202400419200055890006707000628800062880007546000754600000000000000000419202SVSTDSTD87NWORK           NCNSUPERVISOR - SHIP                  SUPERVISOR - SHIP   YYYYYYYYYYYYYYYY          
01021    0629202400429200057230006867000643800064380007726000772600000000000000000429202SVSTDSTD87NWORK           NCNSUPERVISOR - SHIP                  SUPERVISOR - SHIP   YYYYYYYYYYYYYYYY          
01022    0629202400449200059890007187000673800067380008086000808600000000000000000449202SVSTDSTD87NWORK           NCNSUPERVISOR - SHIP                  SUPERVISOR - SHIP   YYYYYYYYYYYYYYYY          
01023    0629202400449200059890007187000673800067380008086000808600000000000000000449202SVSTDSTD87NWORK           NCNSUPERVISOR - SHIP                  SUPERVISOR - SHIP   YYYYYYYYYYYYYYYY          
01024    0629202400572500076330009160000858800085880010305001030500000000000000000572502SVSTDSTD87NWORK           NCNSUPERVISOR - SHIP                  SUPERVISOR - SHIP   YYYYYYYYYYYYYYYY          
01025    0629202400572500076330009160000858800085880010305001030500000000000000000572502SVSTDSTD87NWORK           NCNSUPERVISOR - SHIP                  SUPERVISOR - SHIP   YYYYYYYYYYYYYYYY          
01030    0629202400419200055890006707000628800062880007546000754600000000000000000419202SVSTDSTD87NWORK           NCNSUPERVISOR - DOCK                  SUPERVISOR - DOCK   YYYYYYYYYYYYYYYY          
01031    0629202400429200057230006867000643800064380007726000772600000000000000000429202SVSTDSTD87NWORK           NCNSUPERVISOR - DOCK                  SUPERVISOR - DOCK   YYYYYYYYYYYYYYYY          
01032    0629202400449200059890007187000673800067380008086000808600000000000000000449202SVSTDSTD87NWORK           NCNSUPERVISOR - DOCK                  SUPERVISOR - DOCK   YYYYYYYYYYYYYYYY          
01033    0629202400449200059890007187000673800067380008086000808600000000000000000449202SVSTDSTD87NWORK           NCNSUPERVISOR - DOCK                  SUPERVISOR - DOCK   YYYYYYYYYYYYYYYY          
01034    0629202400572500076330009160000858800085880010305001030500000000000000000572502SVSTDSTD87NWORK           NCNSUPERVISOR - DOCK                  SUPERVISOR - DOCK   YYYYYYYYYYYYYYYY          
01035    0629202400572500076330009160000858800085880010305001030500000000000000000572502SVSTDSTD87NWORK           NCNSUPERVISOR - DOCK                  SUPERVISOR - DOCK   YYYYYYYYYYYYYYYY          
01040    0629202400453200060430007251000679800067980008158000815800000000000000000453202SCSTDSTD87NWORK           NNNSUPERCARGO/BULK/SHIP               SUPERCARGO/BULK/SHIPYYYYYYYYYYYYYYYY          
01041    0629202400463200061760007411000694800069480008338000833800000000000000000463202SCSTDSTD87NWORK           NNNSUPERCARGO/BULK/SHIP               SUPERCARGO/BULK/SHIPYYYYYYYYYYYYYYYY          
01042    0629202400483200064430007731000724800072480008698000869800000000000000000483202SCSTDSTD87NWORK           NNNSUPERCARGO/BULK/SHIP               SUPERCARGO/BULK/SHIPYYYYYYYYYYYYYYYY          
01043    0629202400483200064430007731000724800072480008698000869800000000000000000483202SCSTDSTD87NWORK           NNNSUPERCARGO/BULK/SHIP               SUPERCARGO/BULK/SHIPYYYYYYYYYYYYYYYY          
01044    0629202400606500080870009704000909800090980010917001091700000000000000000606502SCSTDSTD87NWORK           NNNSUPERCARGO/BULK/SHIP               SUPERCARGO/BULK/SHIPYYYYYYYYYYYYYYYY          
01045    0629202400606500080870009704000909800090980010917001091700000000000000000606502SCSTDSTD87NWORK           NNNSUPERCARGO/BULK/SHIP               SUPERCARGO/BULK/SHIPYYYYYYYYYYYYYYYY          
01050    0629202400453200060430007251000679800067980008158000815800000000000000000453202SCSTDSTD87NWORK           NTNSUPERCARGO/OTHER/SHIP              SUPERCARGO/OTHER/SHIYYYYYYYYYYYYYYYY          
01051    0629202400463200061760007411000694800069480008338000833800000000000000000463202SCSTDSTD87NWORK           NTNSUPERCARGO/OTHER/SHIP              SUPERCARGO/OTHER/SHIYYYYYYYYYYYYYYYY          
01052    0629202400483200064430007731000724800072480008698000869800000000000000000483202SCSTDSTD87NWORK           NTNSUPERCARGO/OTHER/SHIP              SUPERCARGO/OTHER/SHIYYYYYYYYYYYYYYYY          
01053    0629202400483200064430007731000724800072480008698000869800000000000000000483202SCSTDSTD87NWORK           NTNSUPERCARGO/OTHER/SHIP              SUPERCARGO/OTHER/SHIYYYYYYYYYYYYYYYY          
01054    0629202400606500080870009704000909800090980010917001091700000000000000000606502SCSTDSTD87NWORK           NTNSUPERCARGO/OTHER/SHIP              SUPERCARGO/OTHER/SHIYYYYYYYYYYYYYYYY          
01055    0629202400606500080870009704000909800090980010917001091700000000000000000606502SCSTDSTD87NWORK           NTNSUPERCARGO/OTHER/SHIP              SUPERCARGO/OTHER/SHIYYYYYYYYYYYYYYYY          
01060    0629202400453200060430007251000679800067980008158000815800000000000000000453202SVSTDSTD87NWORK           NTNCHIEF SUPERVISOR                   CHIEF SUPERVISOR    YYYYYYYYYYYYYYYY          
01061    0629202400463200061760007411000694800069480008338000833800000000000000000463202SVSTDSTD87NWORK           NTNCHIEF SUPERVISOR                   CHIEF SUPERVISOR    YYYYYYYYYYYYYYYY          
01062    0629202400483200064430007731000724800072480008698000869800000000000000000483202SVSTDSTD87NWORK           NTNCHIEF SUPERVISOR                   CHIEF SUPERVISOR    YYYYYYYYYYYYYYYY          
01063    0629202400483200064430007731000724800072480008698000869800000000000000000483202SVSTDSTD87NWORK           NTNCHIEF SUPERVISOR                   CHIEF SUPERVISOR    YYYYYYYYYYYYYYYY          
01064    0629202400606500080870009704000909800090980010917001091700000000000000000606502SVSTDSTD87NWORK           NTNCHIEF SUPERVISOR                   CHIEF SUPERVISOR    YYYYYYYYYYYYYYYY          
01065    0629202400606500080870009704000909800090980010917001091700000000000000000606502SVSTDSTD87NWORK           NTNCHIEF SUPERVISOR                   CHIEF SUPERVISOR    YYYYYYYYYYYYYYYY          
01080    0629202400419200055890006707000628800062880007546000754600000000000000000419202CKSTDSTD87NWORK           NCNBASIC CLERK - SHIP REGISTERED      BASIC CLERK - SHIP RYYYYYYYYYYYYYYYYCLERKONLY 
01081    0629202400429200057230006867000643800064380007726000772600000000000000000429202CKSTDSTD87NWORK           NCNBASIC CLERK - SHIP REGISTERED      BASIC CLERK - SHIP RYYYYYYYYYYYYYYYYCLERKONLY 
01082    0629202400449200059890007187000673800067380008086000808600000000000000000449202CKSTDSTD87NWORK           NCNBASIC CLERK - SHIP REGISTERED      BASIC CLERK - SHIP RYYYYYYYYYYYYYYYYCLERKONLY 
01083    0629202400449200059890007187000673800067380008086000808600000000000000000449202CKSTDSTD87NWORK           NCNBASIC CLERK - SHIP REGISTERED      BASIC CLERK - SHIP RYYYYYYYYYYYYYYYYCLERKONLY 
01084    0629202400572500076330009160000858800085880010305001030500000000000000000572502CKSTDSTD87NWORK           NCNBASIC CLERK - SHIP REGISTERED      BASIC CLERK - SHIP RYYYYYYYYYYYYYYYYCLERKONLY 
01085    0629202400572500076330009160000858800085880010305001030500000000000000000572502CKSTDSTD87NWORK           NCNBASIC CLERK - SHIP REGISTERED      BASIC CLERK - SHIP RYYYYYYYYYYYYYYYYCLERKONLY 
01090    0629202400419200055890006707000628800062880007546000754600000000000000000419202CKSTDSTD87NWORK           NCNBASIC CLERK - DOCK REGISTERED      BASIC CLERK - DOCK RYYYYYYYYYYYYYYYYCLERKONLY 
01091    0629202400429200057230006867000643800064380007726000772600000000000000000429202CKSTDSTD87NWORK           NCNBASIC CLERK - DOCK REGISTERED      BASIC CLERK - DOCK RYYYYYYYYYYYYYYYYCLERKONLY 
01092    0629202400449200059890007187000673800067380008086000808600000000000000000449202CKSTDSTD87NWORK           NCNBASIC CLERK - DOCK REGISTERED      BASIC CLERK - DOCK RYYYYYYYYYYYYYYYYCLERKONLY 
01093    0629202400449200059890007187000673800067380008086000808600000000000000000449202CKSTDSTD87NWORK           NCNBASIC CLERK - DOCK REGISTERED      BASIC CLERK - DOCK RYYYYYYYYYYYYYYYYCLERKONLY 
01094    0629202400572500076330009160000858800085880010305001030500000000000000000572502CKSTDSTD87NWORK           NCNBASIC CLERK - DOCK REGISTERED      BASIC CLERK - DOCK RYYYYYYYYYYYYYYYYCLERKONLY 
01095    0629202400572500076330009160000858800085880010305001030500000000000000000572502CKSTDSTD87NWORK           NCNBASIC CLERK - DOCK REGISTERED      BASIC CLERK - DOCK RYYYYYYYYYYYYYYYYCLERKONLY 
01150    0629202400441900058920007070000662900066290007954000795400000000000000000441902CMSTDSTD87NWORK           NCNCOMPUTER KITCHEN/TOWER SUPERVISOR  COMPUTER KITCHEN/TOWYYYYYYYYYYYYYYYY          
01151    0629202400451900060250007230000677900067790008134000813400000000000000000451902CMSTDSTD87NWORK           NCNCOMPUTER KITCHEN/TOWER SUPERVISOR  COMPUTER KITCHEN/TOWYYYYYYYYYYYYYYYY          
01152    0629202400471900062920007550000707900070790008494000849400000000000000000471902CMSTDSTD87NWORK           NCNCOMPUTER KITCHEN/TOWER SUPERVISOR  COMPUTER KITCHEN/TOWYYYYYYYYYYYYYYYY          
01153    0629202400471900062920007550000707900070790008494000849400000000000000000471902CMSTDSTD87NWORK           NCNCOMPUTER KITCHEN/TOWER SUPERVISOR  COMPUTER KITCHEN/TOWYYYYYYYYYYYYYYYY          
01154    0629202400595200079360009523000892800089280010714001071400000000000000000595202CMSTDSTD87NWORK           NCNCOMPUTER KITCHEN/TOWER SUPERVISOR  COMPUTER KITCHEN/TOWYYYYYYYYYYYYYYYY          
01155    0629202400595200079360009523000892800089280010714001071400000000000000000595202CMSTDSTD87NWORK           NCNCOMPUTER KITCHEN/TOWER SUPERVISOR  COMPUTER KITCHEN/TOWYYYYYYYYYYYYYYYY          
01160    0629202400441900058920007070000662900066290007954000795400000000000000000441902CMSTDSTD87NWORK           NCNYARD DIRECTING SPVR  (COMPUTER)    YARD DIRECTING SPVR YYYYYYYYYYYYYYYY          
01161    0629202400451900060250007230000677900067790008134000813400000000000000000451902CMSTDSTD87NWORK           NCNYARD DIRECTING SPVR  (COMPUTER)    YARD DIRECTING SPVR YYYYYYYYYYYYYYYY          
01162    0629202400471900062920007550000707900070790008494000849400000000000000000471902CMSTDSTD87NWORK           NCNYARD DIRECTING SPVR  (COMPUTER)    YARD DIRECTING SPVR YYYYYYYYYYYYYYYY          
01163    0629202400471900062920007550000707900070790008494000849400000000000000000471902CMSTDSTD87NWORK           NCNYARD DIRECTING SPVR  (COMPUTER)    YARD DIRECTING SPVR YYYYYYYYYYYYYYYY          
01164    0629202400595200079360009523000892800089280010714001071400000000000000000595202CMSTDSTD87NWORK           NCNYARD DIRECTING SPVR  (COMPUTER)    YARD DIRECTING SPVR YYYYYYYYYYYYYYYY          
01165    0629202400595200079360009523000892800089280010714001071400000000000000000595202CMSTDSTD87NWORK           NCNYARD DIRECTING SPVR  (COMPUTER)    YARD DIRECTING SPVR YYYYYYYYYYYYYYYY          
01170    0629202400441900058920007070000662900066290007954000795400000000000000000441902CMSTDSTD87NWORK           NNNVESSEL CLERK SPVR  (COMPUTER)      VESSEL CLERK SPVR  (YYYYYYYYYYYYYYYY          
01171    0629202400451900060250007230000677900067790008134000813400000000000000000451902CMSTDSTD87NWORK           NNNVESSEL CLERK SPVR  (COMPUTER)      VESSEL CLERK SPVR  (YYYYYYYYYYYYYYYY          
01172    0629202400471900062920007550000707900070790008494000849400000000000000000471902CMSTDSTD87NWORK           NNNVESSEL CLERK SPVR  (COMPUTER)      VESSEL CLERK SPVR  (YYYYYYYYYYYYYYYY          
01173    0629202400471900062920007550000707900070790008494000849400000000000000000471902CMSTDSTD87NWORK           NNNVESSEL CLERK SPVR  (COMPUTER)      VESSEL CLERK SPVR  (YYYYYYYYYYYYYYYY          
01174    0629202400595200079360009523000892800089280010714001071400000000000000000595202CMSTDSTD87NWORK           NNNVESSEL CLERK SPVR  (COMPUTER)      VESSEL CLERK SPVR  (YYYYYYYYYYYYYYYY          
01175    0629202400595200079360009523000892800089280010714001071400000000000000000595202CMSTDSTD87NWORK           NNNVESSEL CLERK SPVR  (COMPUTER)      VESSEL CLERK SPVR  (YYYYYYYYYYYYYYYY          
01180    0629202400441900058920007070000662900066290007954000795400000000000000000441902CMSTDSTD87NWORK           NCNRAIL CLERK SUPERVISOR COMPUTER     RAIL CLK SUPERVISOR YYYYYYYYYYYYYYYY          
01181    0629202400451900060250007230000677900067790008134000813400000000000000000451902CMSTDSTD87NWORK           NCNRAIL CLERK SUPERVISOR COMPUTER     RAIL CLK SUPERVISOR YYYYYYYYYYYYYYYY          
01182    0629202400471900062920007550000707900070790008494000849400000000000000000471902CMSTDSTD87NWORK           NCNRAIL CLERK SUPERVISOR COMPUTER     RAIL CLK SUPERVISOR YYYYYYYYYYYYYYYY          
01183    0629202400471900062920007550000707900070790008494000849400000000000000000471902CMSTDSTD87NWORK           NCNRAIL CLERK SUPERVISOR COMPUTER     RAIL CLK SUPERVISOR YYYYYYYYYYYYYYYY          
01184    0629202400595200079360009523000892800089280010714001071400000000000000000595202CMSTDSTD87NWORK           NCNRAIL CLERK SUPERVISOR COMPUTER     RAIL CLK SUPERVISOR YYYYYYYYYYYYYYYY          
01185    0629202400595200079360009523000892800089280010714001071400000000000000000595202CMSTDSTD87NWORK           NCNRAIL CLERK SUPERVISOR COMPUTER     RAIL CLK SUPERVISOR YYYYYYYYYYYYYYYY          
01200    0629202400606500080870009704000909800090980010917000000000000000000000000606502PLSTDSTD87NWORK           NNNVESSEL PLANNER                     VESSEL PLANNER      NNNNYYYYYYYYNNNN          
01201    0629202400606500080870009704000909800090980010917000000000000000000000000606502PLSTDSTD87NWORK           NNNVESSEL PLANNER                     VESSEL PLANNER      NNNNYYYYYYYYNNNN          
01202    0629202400606500080870009704000909800090980010917000000000000000000000000606502PLSTDSTD87NWORK           NNNVESSEL PLANNER                     VESSEL PLANNER      NNNNYYYYYYYYNNNN          
01203    0629202400606500080870009704000909800090980010917000000000000000000000000606502PLSTDSTD87NWORK           NNNVESSEL PLANNER                     VESSEL PLANNER      NNNNYYYYYYYYNNNN          
01204    0629202400606500080870009704000909800090980010917000000000000000000000000606502PLSTDSTD87NWORK           NNNVESSEL PLANNER                     VESSEL PLANNER      NNNNYYYYYYYYNNNN          
01205    0629202400606500080870009704000909800090980010917000000000000000000000000606502PLSTDSTD87NWORK           NNNVESSEL PLANNER                     VESSEL PLANNER      NNNNYYYYYYYYNNNN          
01210    0629202400595200079360009523000892800089280010714000000000000000000000000595202PLSTDSTD87YWORK           NNNVESSEL PLANNER TRAINING            VESSEL PLANNER TRAINNNNNYYYYYYYYNNNN          
01211    0629202400595200079360009523000892800089280010714000000000000000000000000595202PLSTDSTD87YWORK           NNNVESSEL PLANNER TRAINING            VESSEL PLANNER TRAINNNNNYYYYYYYYNNNN          
01212    0629202400595200079360009523000892800089280010714000000000000000000000000595202PLSTDSTD87YWORK           NNNVESSEL PLANNER TRAINING            VESSEL PLANNER TRAINNNNNYYYYYYYYNNNN          
01213    0629202400595200079360009523000892800089280010714000000000000000000000000595202PLSTDSTD87YWORK           NNNVESSEL PLANNER TRAINING            VESSEL PLANNER TRAINNNNNYYYYYYYYNNNN          
01214    0629202400595200079360009523000892800089280010714000000000000000000000000595202PLSTDSTD87YWORK           NNNVESSEL PLANNER TRAINING            VESSEL PLANNER TRAINNNNNYYYYYYYYNNNN          
01215    0629202400595200079360009523000892800089280010714000000000000000000000000595202PLSTDSTD87YWORK           NNNVESSEL PLANNER TRAINING            VESSEL PLANNER TRAINNNNNYYYYYYYYNNNN          
01220    0629202400453200060430007251000679800067980008158000815800000000000000000453202SCSTDSTD87NWORK           NNNPLANNING - RAIL                    PLANNING - RAIL     YYYYYYYYYYYYYYYY          
01221    0629202400463200061760007411000694800069480008338000833800000000000000000463202SCSTDSTD87NWORK           NNNPLANNING - RAIL                    PLANNING - RAIL     YYYYYYYYYYYYYYYY          
01222    0629202400483200064430007731000724800072480008698000869800000000000000000483202SCSTDSTD87NWORK           NNNPLANNING - RAIL                    PLANNING - RAIL     YYYYYYYYYYYYYYYY          
01223    0629202400483200064430007731000724800072480008698000869800000000000000000483202SCSTDSTD87NWORK           NNNPLANNING - RAIL                    PLANNING - RAIL     YYYYYYYYYYYYYYYY          
